S0180000315F4750494F5F4F75747075745F454B2E737265636E
S3150000000098440020010C0000E90A0000FD0B0000E6
S31500000010FD0B0000FD0B0000FD0B0000FD0B0000BA
S31500000020000000000000000000000000FD0B0000C2
S31500000030FD0B000000000000FD0B0000FD0B0000A2
S31500000040FFFFFFFFFFFFFFFFFFFFFFFFFFFFFFFFBA
S31500000050FFFFFFFFFFFFFFFFFFFFFFFFFFFFFFFFAA
S31500000060FFFFFFFFFFFFFFFFFFFFFFFFFFFFFFFF9A
S31500000070FFFFFFFFFFFFFFFFFFFFFFFFFFFFFFFF8A
S31500000400FFFFFFFFDFCEFFFFFCFF0F00FFFF0F0028
S31500000410FCFF0F00FFFF0F00FCFF0F00FFFF0F00A8
S31500000420FCFF0F20FFFF0F20FCFF7F40FFFF7F40F8
S31500000430FCFF0D40FFFF0D40FFFFFFFFFFFFFFFF2B
S31500000440FFFFFFFFFFFFFFFFFFFFFFFFFFFFFFFFB6
S31500000450FFFFFFFFFFFFFFFFFFFFFFFFFFFFFFFFA6
S31500000460FFFFFFFFFFFFFFFFFFFFFFFFFFFFFFFF96
S31500000470FFFFFFFFFFFFFFFFFFFFFFFFFFFFFFFF86
S31500000480FFFFFFFFFFFFFFFFFFFFFFFFFFFFFFFF76
S31500000490FFFFFFFFFFFFFFFFFFFFFFFFFFFFFFFF66
S315000004A0FFFFFFFFFFFFFFFFFFFFFFFFFFFFFFFF56
S315000004B0FFFFFFFFFFFFFFFFFFFFFFFFFFFFFFFF46
S315000004C0FFFFFFFFFFFFFFFFFFFFFFFFFFFFFFFF36
S315000004D0FFFFFFFFFFFFFFFFFFFFFFFFFFFFFFFF26
S315000004E0FFFFFFFFFFFFFFFFFFFFFFFFFFFFFFFF16
S315000004F0FFFFFFFFFFFFFFFFFFFFFFFFFFFFFFFF06
S3150000050010B544F22004C2F20004237863B940F225
S315000005100003C0F200032BB141F21C00C0F2000040
S3150000052000E000BF0123237010BDC04640F2000367
S31500000530C0F2000310B54BB144F2240141F21C0095
S31500000540C2F20001C0F2000000E000BF10BDC046CC
S3150000055010B544F23C00012240F60F11C2F2000031
S3150000056000F0DCF844F23C00012240F60E11C2F223
S31500000570000000F0D3F844F23C00012240F60D11D1
S31500000580C2F2000000F0CAF840F2E831962000F00E
S315000005907DFA44F23C00002240F60F11C2F2000040
S315000005A000F0BCF844F23C00002240F60E11C2F204
S315000005B0000000F0B3F844F23C00002240F60D11B2
S315000005C0C2F2000000F0AAF840F2E831962000F0EE
S315000005D05DFABEE700B583B040B94CF20003902245
S315000005E00121C4F27E03995403B000BD0228FBD159
S315000005F040F63C6344F23C00C0F200035B68C2F282
S3150000060000001900019300F083F9EDE710B5FFF73C
S315000006109FFF002010BDC0460023036000207047E6
S315000006200800F0B5EFF31084012383F3108844F239
S315000006308403C2F20003196831B940F60055C4F2CA
S315000006400405E9704031E97019680131196084F3D5
S315000006501088040AD10320D4FF210140200140F66E
S3150000066000044018C4F2040480000251EFF3108223
S31500000670012181F31088196811B1196801391960CF
S315000006801B6833B940F60051C4F20401CB708033C5
S31500000690CB7082F310880020F0BDFF2140F60005E4
S315000006A0014020014418C4F20405A4006759034E12
S315000006B03740164067516651D1E7C046FFFFFEFF3F
S315000006C00B00FF20034040F60000090A0901C91883
S315000006D0C4F2040089000B589B07DB0F002013703F
S315000006E07047C0460023C4F204039C46090A490128
S315000006F061444B68002013807047C0460020C4F256
S31500000700040084461800090A904300041340490176
S315000007100343614400208B607047C046FF200123DD
S315000007200840834052B91B040022C4F204029446D6
S31500000730090A4901614400208B6070474FF6FF7239
S315000007401340F1E70020C4F2040084461800090AA9
S31500000750490110B561440C68104020439343984307
S315000007600860002010BDC0460023C4F204039C4666
S31500000770090A490161444B6800201B0C138070472D
S315000007800020C4F20400844610B50B0A5B016344E2
S315000007905C68FF231940FE3B8B40240C99B2234032
S315000007A05B1A59424B410020137010BD0020C4F261
S315000007B0040084461800090A9043000413404901C6
S315000007C0034361440020CB607047C0460B0A10B556
S315000007D05B01012A10D00022C4F204029446FF20D5
S315000007E08022014052028A406344DC682243120C94
S315000007F012040020DA6010BD0020C4F20400844612
S31500000800FF2001408A4011004FF6FF726344DC6806
S31500000810114021430A40ECE7F0B5DE4657464E4606
S315000008204546E0B583B0EFF31082012383F31088C9
S3150000083044F28403C2F2000301931B6833B940F605
S315000008400054C4F20404E3704033E370019C23684F
S315000008500133236082F310880388C3B30B6840F624
S315000008600004984680235B029C46284B00229A4649
S31500000870C4F204040DE0330A9946FF231E404B469A
S315000008801B019B199B0019510132038892B29342B6
S315000008901DD96346D10041448E8809681942EAD0C1
S315000008A0330A9946FF231E404B4657461B019D19A6
S315000008B0AD00A9462D593D40AB464D465F462F51EA
S315000008C055460D40AB464D465F462F51D9E7EFF3EF
S315000008D01082012383F31088019B1B681BB10199C9
S315000008E00B68013B0B60019B1B6833B940F6005156
S315000008F0C4F20401CB708033CB7082F3108803B04E
S31500000900F0BCBB46B246A946A046F0BDFFFFFEFFBF
S3150000091045F25423020010B5C5F24F0308001360D8
S315000009200431FFF779FF002010BDC04610B508005E
S315000009300431FFF771FF002010BDC0464EF20003E0
S31500000940A022C4F201039A5C824217D036229A5C36
S315000009501AB93C215A5CD207FCD54EF20002A021FE
S31500000960C4F20102535CDB06FCD450544EF2000282
S31500000970A021C4F20102535CDB06FCD47047C046DA
S315000009804EF20003262244F20801C4F20103985CE9
S315000009901B6A8000C2F2000141585B015B0F44F202
S315000009A09002D940C2F2000211607047F8B54EF2CB
S315000009B0000440F2FE332D4AC4F20104E2524CF226
S315000009C00003002743F6C872C4F27E039F5444F224
S315000009D0080546F60043C2F20005C0F2DC232B6090
S315000009E041F20023C0F27A036B6048F20003AB6069
S315000009F02623EF602F61E25C236A9200AA585B010E
S31500000A005B0F44F29006DA40C2F2000640F28043E1
S31500000A10326001220020E254FFF790FF36233C218A
S31500000A20E754635CDB07FCD501213123E1544FF623
S31500000A30C473C4F27E03197040F2001300202362CF
S31500000A40DA3BE054E05C236A800028585B015B0FC8
S31500000A50D84040F2FE333060054843F6C872E05293
S31500000A604CF20003C4F27E039954F8BD03A5FFFFC0
S31500000A7000A5FFFF44F2000328220021C4F204036C
S31500000A809954704701380028FCD1704744F290020F
S31500000A904CF600234143C2F2000270B51468C3F657
S31500000AA09A330D00B3FBF4F4080040F2E832002359
S31500000AB0002100F04FF931B9B0FBF4F0800808B11D
S31500000AC0FFF7E0FF70BDA400B5FBF4F040F2E8329A
S31500000AD00023002100F03EF90029F0D00120404219
S31500000AE0FFF7D0FFEEE7C04646F2000340F24012A1
S31500000AF070B500240126C4F200039D5AADB22B0046
S31500000B00E340E0B21E4209D044F24402C2F20002BF
S31500000B109446A30063441B6803B198470134102C24
S31500000B20EDD146F2000340F23012C4F200039D52AA
S31500000B3070BDC04646F200000023C4F2000040F635
S31500000B40F472C0F200029A1811781A00C0329200AC
S31500000B5001331150202BF2D17047C04670B5EFF328
S31500000B601081012383F3108844F288034000C2F207
S31500000B7000031A5A1AB11A5A013A92B21A521B5A59
S31500000B8083B94EF2000240F2FE3541F21404C4F27B
S31500000B900102565B054BC0F20004205A33438343DF
S31500000BA09BB2535381F3108870BDC04600A5FFFF6A
S31500000BB070B5EFF31081012383F3108844F28802A5
S31500000BC04000C2F20002135A83B94EF2000441F209
S31500000BD0140540F2FE36C4F20104C0F20005A35B20
S31500000BE02D5A2B434AF200552B43A353135A013374
S31500000BF09BB2135281F3108870BDC04600BE704789
S31500000C0010B500F003F8FFF701FDFEE7F0B54EF66C
S31500000C10005340F20005CEF20003C0F2000583B097
S31500000C209D600020FFF7D6FCFFF7C0FE6B4600274D
S31500000C30DC1D277001202378FFF7BAFFEFF3108140
S31500000C40012686F3108846F6FC73C4F204039A68FC
S31500000C503C4802409A609A6881F3108840F6000189
S31500000C60C4F204010A68D207D20F22700A68D207BA
S31500000C70D20F22700A68D207D20F2270EFF31081CA
S31500000C8086F3108880229868520502439A609B6812
S31500000C9081F310880120FFF761FF0120FFF79AFC1E
S31500000CA040F60053284AC4F200039F8027491A8061
S31500000CB02A6841F2000051189960DA6046F2000293
S31500000CC040F22011C4F20002505244F2940244F25F
S31500000CD02000C2F20002C2F200009E800021121A19
S31500000CE000F06FF844F2000044F2080241F22001DD
S31500000CF0C2F20000C2F20002121AC0F2000100F0B5
S31500000D0057F844F2000544F20403C2F20005C2F2A9
S31500000D1000035B1B9E10002B05DD002408CD01346B
S31500000D209847A642FADCFFF72BFEFFF7A3FE022048
S31500000D30FFF750FCFFF7FEFE002000F009F803B0B5
S31500000D40F0BDC046FFFFFFEF00A5FFFF00FCFFFF61
S31500000D507047C046F0B5CE4647464FF6FF7580B59C
S31500000D600700280015400E002900140C384099464B
S31500000D703B0C41435D436043634340190C0C24180C
S31500000D809C46A54203D980235B029846C4444B4641
S31500000D904FF6FF707B437243250C654424040840DC
S31500000DA0591920188918C0BCB946B046F0BDC046CE
S31500000DB0002310B59A4200D110BDCC5CC454013357
S31500000DC0F8E703008218934200D170471970013387
S31500000DD0F9E7FFFF4275696C7420776974682052E1
S31500000DE0656E6573617320416476616E6365642028
S31500000DF0466C657869626C6520536F6674776172BC
S31500000E0065205061636B6167652076657273696FF3
S31500000E106E20342E342E3000342E342E3000000056
S31500000E2000000404F8B5C046F8BC08BC9E467047EE
S31500000E30F8B5C046F8BC08BC9E4670473C4000204A
S31500000E40480E0000C00F00002E000000500E0000EB
S31500000E50008000000000000000800000010000008B
S31500000E600080000002000000008000000300000077
S31500000E700040000004000000008000000C0000009C
S31500000E80008000000D000000004000000F00000080
S31500000E90000001060001000000000106010100003B
S31500000EA00000010602010000000001060301000027
S31500000EB00400000004010000000001060501000016
S31500000EC00000010606010000040000000701000002
S31500000ED000000100080100000400000009010000F4
S31500000EE0104000000A010000000001030B01000091
S31500000EF0040000000C010000040000000D010000C9
S31500000F0000000104050200000000010406020000C2
S31500000F1004000000070200000400000008020000B0
S31500000F20000001000003000040000104010300006E
S31500000F304000010402030000040000000303000057
S31500000F400400000004030000000001050004000086
S31500000F500000010501040000000001050204000074
S31500000F60000001050304000000000107070400005B
S31500000F7000000107080400001040000009040000FA
S31500000F80040000000A040000104000000B040000EA
S31500000F9004000000000500004000010501050000F6
S31500000FA04000010502050000040000000D090000D4
S31500000FB0040000000E090000040000000F090000F4
S31500000FC011090000190600002D0900002106000085
S31500000FD081070000CD070000C10600001D070000C4
S31500000FE04507000069070000AD070000E5060000A0
S31500000FF0FD060000000000000000000000000000E8
S3150000100000000000000000000000000000000000DA
S3150000101000000000010002000800100000000000AF
S30D000010202D050000010500008A
S31501010018FFFFFFFFFFFFFFFFFFFFFFFFFFFFFFFFE0
S31101010028FFFFFFFFFFFFFFFFFFFFFFFFD0
S70500000C01ED
