S0110000335F554152545F454B2E7372656356
S3150000000048450020351200001D1100003112000085
S3150000001031120000311200003112000031120000CE
S315000000200000000000000000000000003112000087
S3150000003031120000000000003112000031120000F1
S31500000040E90A0000550A0000890B0000D50B0000E4
S31500000050000000000000000000000000000000009A
S31500000060000000000000000000000000000000008A
S31500000070000000000000000000000000000000007A
S31500000080000000000000000000000000000000006A
S31500000400FFFFFFFFDFCEFFFFFCFF0F00FFFF0F0028
S31500000410FCFF0F00FFFF0F00FCFF0F00FFFF0F00A8
S31500000420FCFF0F20FFFF0F20FCFF7F40FFFF7F40F8
S31500000430FCFF0D40FFFF0D40FFFFFFFFFFFFFFFF2B
S31500000440FFFFFFFFFFFFFFFFFFFFFFFFFFFFFFFFB6
S31500000450FFFFFFFFFFFFFFFFFFFFFFFFFFFFFFFFA6
S31500000460FFFFFFFFFFFFFFFFFFFFFFFFFFFFFFFF96
S31500000470FFFFFFFFFFFFFFFFFFFFFFFFFFFFFFFF86
S31500000480FFFFFFFFFFFFFFFFFFFFFFFFFFFFFFFF76
S31500000490FFFFFFFFFFFFFFFFFFFFFFFFFFFFFFFF66
S315000004A0FFFFFFFFFFFFFFFFFFFFFFFFFFFFFFFF56
S315000004B0FFFFFFFFFFFFFFFFFFFFFFFFFFFFFFFF46
S315000004C0FFFFFFFFFFFFFFFFFFFFFFFFFFFFFFFF36
S315000004D0FFFFFFFFFFFFFFFFFFFFFFFFFFFFFFFF26
S315000004E0FFFFFFFFFFFFFFFFFFFFFFFFFFFFFFFF16
S315000004F0FFFFFFFFFFFFFFFFFFFFFFFFFFFFFFFF06
S3150000050010B544F22004C2F20004237863B940F225
S315000005100003C0F200032BB141F29C60C0F2000060
S3150000052000E000BF0123237010BDC04640F2000367
S31500000530C0F2000310B54BB144F2240141F29C60B5
S31500000540C2F20001C0F2000000E000BF10BDC046CC
S315000005507047C04630B589B041F2704305AC220001
S31500000560C0F2000303CB03C2198802AD11809B7849
S31500000570937041F27C432A00C0F2000303CB03C20E
S3150000058041F2944144F244001B88C0F200011380FA
S31500000590C2F2000000F00AF96B4644F23C000F215B
S315000005A0DA1DC2F2000000F0A5FB0028F4D16B466C
S315000005B0DB79012B28D144F23C00012240F60F11D1
S315000005C0C2F2000000F0C4FB44F23C00012240F6F7
S315000005D00E11C2F2000000F0BBFB44F23C00012207
S315000005E040F60D11C2F2000000F0B2FB44F24400E6
S315000005F00B222100C2F2000000F04CF840F2E83174
S31500000600322000F05DFDC7E744F23C00002240F6D0
S315000006100F11C2F2000000F09BFB44F23C000022E6
S3150000062040F60E11C2F2000000F092FB44F23C00CC
S31500000630002240F60D11C2F2000000F089FB44F2E0
S3150000064044000A222900C2F2000000F023F8D5E790
S3150000065000B583B040B94CF2000390220121C4F2E8
S315000006607E03995403B000BD0228FBD141F28843B2
S3150000067044F23C00C0F200035B68C2F200001900BD
S31500000680019300F05FFCEDE710B5FFF763FF002074
S3150000069010BDC0467B2330B5046AA5782B40A370F5
S315000006A083789B079B0FD21A02618022CB18C36006
S315000006B0A3781343A370032382781340022B03D03D
S315000006C00B78E370002030BD4FF600620B881343B1
S315000006D0E381F7E7F0B51F2501241540AC404EF243
S315000006E00015C64653092033CEF200059B0000B51F
S315000006F088465C51BFF34F8FBFF36F8F130046F2EE
S315000007000004C033C4F200049B001D59124E35404C
S315000007101D511B594EF20011FF240325CEF2000194
S315000007208C46210040F200371540ED00A9409308A1
S315000007309B006344DE5992008E43414689010C407A
S31500000740AC403443DC5144F2B803C2F20003D0504B
S3150000075080BCB846F0BDC046FFFFFEFFF0B5C646FA
S3150000076000B50500806A84B08C4690466C46D8B1C8
S315000007702300060086CE86C336681E60EB691B78AA
S3150000078003606346836043460371EB6AC3606B6A2A
S315000007909847AB6A23B107CC07C31A0023681360D6
S315000007A004B080BCB846F0BD2000E7E743F600027F
S315000007B0C0F200229446F8B54546DE4657464E46F8
S315000007C00B78E0B563445B010362002303704A695A
S315000007D00D0042628A69C161C262032201218362FD
S315000007E08378040093430B4383706B7823B9837833
S315000007F093430222134383700B222000AA56A97A40
S31500000800FFF768FF05222000AA562979FFF762FF45
S3150000081007222000AA56A979FFF75CFF09222000CB
S31500000820AA56297AFFF756FFEFF31086012080F3C8
S315000008301088802146F6FC732F780906F940C4F229
S3150000084004035A688A435A605B6886F3108800225C
S31500000850236A29789A701A715A729A72DA725A83CE
S3150000086040F20722CA40104201D04022DA74062222
S315000008701A7709B9754A9A82AA78E9781201C900E5
S315000008800A436978032900D1DCE0481E8141102023
S3150000089049420140E231D2B21A7002229971E969E5
S315000008A0FF26087B4000024020205A734A788D7844
S315000008B0D2016D01284032400243002018720878A8
S315000008C0851E8346012D00D8B4E003274D68D2B2B9
S315000008D0DA71AA786E785A701A783E40BA43324373
S315000008E01A70EA7859379A74DE792A78BE433A4004
S315000008F03243DA71002305222361A361E360636159
S31500000900E369534F9A5646F200031500C035C4F208
S315000009100003AD00EE58BC463E40EE50ED58BFF326
S315000009205F8F40F21F0A0126554637001540AF403B
S315000009304EF20015CEF20005A94640F28015520986
S3150000094092004A445751176040F2C008E269604677
S31500000950D27A52B290444746BF00B846FF58074085
S315000009604046C750C058BFF35F8F57461740B8463A
S315000009703700404687404EF20010CEF20000814616
S31500000980520992004A445751176040F2C008E26982
S31500000990D27952B29044404680008046C058070043
S315000009A0604607404046C750C058BFF35F8F574662
S315000009B01740B8463700404687404EF20010CEF248
S315000009C000008146520992004A445751176040F28E
S315000009D0C008E2696746527A52B2904440468000A7
S315000009E08046C05807404046C750C358BFF35F8F84
S315000009F04EF200135746CEF2000317409C46BE4007
S31500000A005209920062445651166003235846184014
S31500000A106D331843236A98704B890020238144F66E
S31500000A205513C5F243336360F0BCBB46B246A946D4
S31500000A30A046F8BD5E70022801D110252A43D2B225
S31500000A40DA7157E73D310A43B23124E700F8FFFF78
S31500000A50FFFFFEFF70B5EFF30383103B5BB21A0096
S31500000A6046F20001C032C4F20001920050581D4CFB
S31500000A7020405050525844F2B8029B00C2F2000285
S31500000A809858C3691B6913B1036913B170BD036933
S31500000A9083B97F23026A91780B4004210B4393703C
S31500000AA00023C360436A002BF0D080220021FFF7A9
S31500000AB055FEEBE703218278114002290AD0C1686E
S31500000AC0056A0C78EC709207920F9B1A8A180361DC
S31500000AD0C260DAE74FF60065C1680C882C43056AE8
S31500000AE0EC81F0E7FFFFFEFF10B582B0EFF3038362
S31500000AF0103B5BB21A0046F20001C032C4F200019C
S31500000B00920050581F4C20405050525844F2B802A0
S31500000B109B00C2F200029C580323A2781340022BCA
S31500000B200DD0236A5979A369C9B2019183B9636A61
S31500000B301BB104222000FFF711FE02B010BD40F2E7
S31500000B40FF11236A1B8A1940A3690191002BEED07D
S31500000B509207920F606901A900F044FCA3786269CC
S31500000B609B079B0FD2186261A269D31AA361002B5F
S31500000B70E3D1636A002BE0D0012200212000FFF7B9
S31500000B80EDFDDAE7FFFFFEFF10B5EFF3038444F255
S31500000B90B803103C64B2C2F20003A200D0587B2313
S31500000BA0026A91780B409370436A1BB102220021BE
S31500000BB0FFF7D4FD230046F20002C033C4F2000260
S31500000BC09B0099580248014099509B5810BDC04659
S31500000BD0FFFFFEFF70B5EFF3038444F2B803103C49
S31500000BE064B2C2F20003A200D058032382781340F5
S31500000BF0022B22D0036A5979C9B238221D792A40BC
S31500000C00ED0602D51D7FED0714D538261D79B543AF
S31500000C101D71436A0BB1FFF7A1FD230046F20002E6
S31500000C20C033C4F200029B0099580748014099500E
S31500000C309B5870BD40252A43E7E740F2FF11036A3F
S31500000C401A8A1140D9E7C046FFFFFEFF0023036062
S31500000C50002070470800F0B5EFF31084012383F3FA
S31500000C60108844F2B403C2F20003196831B940F6A1
S31500000C700055C4F20405E9704031E9701968013184
S31500000C80196084F31088040AD10320D4FF2101409F
S31500000C90200140F600044018C4F20404800002510A
S31500000CA0EFF31082012181F31088196811B11968D8
S31500000CB0013919601B6833B940F60051C4F20401CA
S31500000CC0CB708033CB7082F310880020F0BDFF21FB
S31500000CD040F60005014020014418C4F20405A400B2
S31500000CE06759034E3740164067516651D1E7C046F3
S31500000CF0FFFFFEFF0B00FF20034040F60000090A3D
S31500000D000901C918C4F2040089000B589B07DB0FC0
S31500000D10002013707047C0460023C4F204039C46AB
S31500000D20090A490161444B68002013807047C04698
S31500000D300020C4F2040084461800090A9043000407
S31500000D40134049010343614400208B607047C0464D
S31500000D50FF2001230840834052B91B040022C4F23D
S31500000D6004029446090A4901614400208B607047D9
S31500000D704FF6FF721340F1E70020C4F204008446E8
S31500000D801800090A490110B561440C681040204357
S31500000D90934398430860002010BDC0460023C4F268
S31500000DA004039C46090A490161444B6800201B0C58
S31500000DB0138070470020C4F20400844610B50B0A65
S31500000DC05B0163445C68FF231940FE3B8B40240CA7
S31500000DD099B223405B1A59424B410020137010BD53
S31500000DE00020C4F2040084461800090A9043000457
S31500000DF013404901034361440020CB607047C0465D
S31500000E000B0A10B55B01012A10D00022C4F20402BD
S31500000E109446FF208022014052028A406344DC68E7
S31500000E202243120C12040020DA6010BD0020C4F226
S31500000E3004008446FF2001408A4011004FF6FF72ED
S31500000E406344DC68114021430A40ECE7F0B5DE4616
S31500000E5057464E464546E0B583B0EFF31082012370
S31500000E6083F3108844F2B403C2F2000301931B68B3
S31500000E7033B940F60054C4F20404E3704033E3701F
S31500000E80019C23680133236082F310880388C3B36F
S31500000E900B6840F60004984680235B029C46284B6C
S31500000EA000229A46C4F204040DE0330A9946FF2351
S31500000EB01E404B461B019B199B00195101320388AA
S31500000EC092B293421DD96346D10041448E88096887
S31500000ED01942EAD0330A9946FF231E404B4657462D
S31500000EE01B019D19AD00A9462D593D40AB464D4607
S31500000EF05F462F5155460D40AB464D465F462F5136
S31500000F00D9E7EFF31082012383F31088019B1B6856
S31500000F101BB101990B68013B0B60019B1B6833B940
S31500000F2040F60051C4F20401CB708033CB7082F3DB
S31500000F30108803B0F0BCBB46B246A946A046F0BD39
S31500000F40FFFFFEFF45F25423020010B5C5F24F0322
S31500000F50080013600431FFF779FF002010BDC0467A
S31500000F6010B508000431FFF771FF002010BDC04620
S31500000F704EF20003A022C4F201039A5C824217D00B
S31500000F8036229A5C1AB93C215A5CD207FCD54EF23D
S31500000F900002A021C4F20102535CDB06FCD45054CB
S31500000FA04EF20002A021C4F20102535CDB06FCD41F
S31500000FB07047C0464EF20003262244F20C01C4F2EA
S31500000FC00103985C1B6A8000C2F2000141585B0174
S31500000FD05B0F44F24012D940C2F200021160704722
S31500000FE0F8B54EF2000440F2FE332D4AC4F2010475
S31500000FF0E2524CF20003002743F6C872C4F27E03A5
S315000010009F5444F20C0546F60043C2F20005C0F2B6
S31500001010DC232B6041F20023C0F27A036B6048F2B6
S315000010200003AB602623EF602F61E25C236A920027
S31500001030AA585B015B0F44F24016DA40C2F2000682
S3150000104040F28043326001220020E254FFF790FF15
S3150000105036233C21E754635CDB07FCD501213123B1
S31500001060E1544FF6C473C4F27E03197040F20013C4
S3150000107000202362DA3BE054E05C236A80002858B3
S315000010805B015B0FD84040F2FE333060054843F603
S31500001090C872E0524CF20003C4F27E039954F8BDC4
S315000010A003A5FFFF00A5FFFF44F20003282200214D
S315000010B0C4F204039954704701380028FCD17047E4
S315000010C044F240124CF600234143C2F2000270B5CE
S315000010D01468C3F69A330D00B3FBF4F4080040F22B
S315000010E0E8320023002100F04FF931B9B0FBF4F0EB
S315000010F0800808B1FFF7E0FF70BDA400B5FBF4F06F
S3150000110040F2E8320023002100F03EF90029F0D039
S3150000111001204042FFF7D0FFEEE7C04646F200034B
S3150000112040F2401270B500240126C4F200039D5A15
S31500001130ADB22B00E340E0B21E4209D044F2740285
S31500001140C2F200029446A30063441B6803B19847A9
S315000011500134102CEDD146F2000340F23012C4F2F5
S3150000116000039D5270BDC04646F200000023C4F243
S31500001170000041F24062C0F200029A1811781A008B
S31500001180C032920001331150202BF2D17047C04675
S3150000119070B5EFF31081012383F3108844F23813FE
S315000011A04000C2F200031A5A1AB11A5A013A92B210
S315000011B01A521B5A83B94EF2000240F2FE3541F232
S315000011C09464C4F20102565B054BC0F20004205A37
S315000011D0334383439BB2535381F3108870BDC0469B
S315000011E000A5FFFF70B5EFF31081012383F310888C
S315000011F044F238124000C2F20002135A83B94EF28A
S31500001200000441F2946540F2FE36C4F20104C0F2D5
S315000012100005A35B2D5A2B434AF200552B43A353DB
S31500001220135A01339BB2135281F3108870BDC04626
S3150000123000BE704710B500F003F8FFF725FAFEE789
S31500001240F0B54EF6005340F20005CEF20003C0F2B0
S31500001250000583B09D600020FFF7FAF9FFF7C0FE96
S315000012606B460027DC1D277001202378FFF7BAFFA5
S31500001270EFF31081012686F3108846F6FC73C4F25C
S3150000128004039A683C4802409A609A6881F3108881
S3150000129040F60001C4F204010A68D207D20F227098
S315000012A00A68D207D20F22700A68D207D20F2270BC
S315000012B0EFF3108186F31088802298685205024366
S315000012C09A609B6881F310880120FFF761FF012077
S315000012D0FFF7BEF940F60053284AC4F200039F8088
S315000012E027491A802A6841F2000051189960DA608D
S315000012F046F2000240F22011C4F20002505244F2BB
S31500001300441244F22000C2F20002C2F200009E80A3
S315000013100021121A00F06FF844F2000044F20C02A9
S3150000132041F2A061C2F20000C2F20002121AC0F23B
S31500001330000100F057F844F2040544F20803C2F233
S315000013400005C2F200035B1B9E10002B05DD002486
S3150000135008CD01349847A642FADCFFF72BFEFFF7CB
S31500001360A3FE0220FFF774F9FFF7FEFE002000F04F
S3150000137009F803B0F0BDC046FFFFFFEF00A5FFFF71
S3150000138000FCFFFF7047C046F0B5CE4647464FF615
S31500001390FF7580B50700280015400E002900140CC3
S315000013A0384099463B0C41435D43604363434019D3
S315000013B00C0C24189C46A54203D980235B02984650
S315000013C0C4444B464FF6FF707B437243250C65447D
S315000013D024040840591920188918C0BCB946B046DB
S315000013E0F0BDC046002310B59A4200D110BDCC5CBA
S315000013F0C4540133F8E703008218934200D17047C2
S3150000140019700133F9E7FFFF4275696C742077693B
S3150000141074682052656E6573617320416476616EEF
S3150000142063656420466C657869626C6520536F66F7
S315000014307477617265205061636B616765207665BC
S315000014407273696F6E20342E342E3000342E342E93
S315000014503000000000000404F8B5C046F8BC08BC23
S315000014609E467047F8B5C046F8BC08BC9E46704715
S315000014704C656420486967680D0A00004C65642065
S315000014804C6F770D0A00FFFF3C400020C814000097
S3150000149060160000000200000200020102020203C0
S315000014A000000000000000005105000000000000E0
S315000014B0B414000000010000004000200F00FFFFF0
S315000014C000000000FFFF00002E000000D014000006
S315000014D00080000000000000008000000100000005
S315000014E000800000020000000080000003000000F1
S315000014F00040000004000000008000000C00000016
S31500001500008000000D000000004000000F000000F9
S3150000151000000106000100000000010601010000B4
S3150000152000000106020100000000010603010000A0
S31500001530040000000401000000000106050100008F
S31500001540000001060601000004000000070100007B
S31500001550000001000801000004000000090100006D
S31500001560104000000A010000000001030B0100000A
S31500001570040000000C010000040000000D01000042
S31500001580000001040502000000000104060200003C
S31500001590040000000702000004000000080200002A
S315000015A000000100000300004000010401030000E8
S315000015B040000104020300000400000003030000D1
S315000015C00400000004030000000001050004000000
S315000015D000000105010400000000010502040000EE
S315000015E000000105030400000000010707040000D5
S315000015F00000010708040000104000000904000074
S31500001600040000000A040000104000000B04000063
S31500001610040000000005000040000105010500006F
S315000016204000010502050000040000000D0900004D
S31500001630040000000E090000040000000F0900006D
S3150000164012100F0F00000000000000000000000054
S315000016500000000000000000000000000000000084
S31500001660450F00004D0C0000610F0000550C0000F6
S31500001670B50D0000010E0000F50C0000510D000034
S31500001680790D00009D0D0000E10D0000190D000010
S31500001690310D0000010002000800100000000000EB
S311000016A040000C002D05000001050000B4
S31501010018FFFFFFFFFFFFFFFFFFFFFFFFFFFFFFFFE0
S31101010028FFFFFFFFFFFFFFFFFFFFFFFFD0
S70500001235B3
