S0110000355F455854495F454B2E7372656356
S3150000000090560020A91300004D120000A513000011
S31500000010A5130000A5130000A5130000A5130000FA
S31500000020000000000000000000000000A513000012
S31500000030A513000000000000A5130000A513000092
S315000000400D0B0000790A0000AD0B0000F90B000053
S315000000500000000000000000000000008D100000FD
S315000000600000000000000000000000008D100000ED
S31500000070000000000000000000000000000000007A
S31500000080000000000000000000000000000000006A
S31500000090000000000000000000000000000000005A
S315000000A0000000000000000000000000000000004A
S31500000400FFFFFFFFDFCEFFFFFCFF0F00FFFF0F0028
S31500000410FCFF0F00FFFF0F00FCFF0F00FFFF0F00A8
S31500000420FCFF0F20FFFF0F20FCFF7F40FFFF7F40F8
S31500000430FCFF0D40FFFF0D40FFFFFFFFFFFFFFFF2B
S31500000440FFFFFFFFFFFFFFFFFFFFFFFFFFFFFFFFB6
S31500000450FFFFFFFFFFFFFFFFFFFFFFFFFFFFFFFFA6
S31500000460FFFFFFFFFFFFFFFFFFFFFFFFFFFFFFFF96
S31500000470FFFFFFFFFFFFFFFFFFFFFFFFFFFFFFFF86
S31500000480FFFFFFFFFFFFFFFFFFFFFFFFFFFFFFFF76
S31500000490FFFFFFFFFFFFFFFFFFFFFFFFFFFFFFFF66
S315000004A0FFFFFFFFFFFFFFFFFFFFFFFFFFFFFFFF56
S315000004B0FFFFFFFFFFFFFFFFFFFFFFFFFFFFFFFF46
S315000004C0FFFFFFFFFFFFFFFFFFFFFFFFFFFFFFFF36
S315000004D0FFFFFFFFFFFFFFFFFFFFFFFFFFFFFFFF26
S315000004E0FFFFFFFFFFFFFFFFFFFFFFFFFFFFFFFF16
S315000004F0FFFFFFFFFFFFFFFFFFFFFFFFFFFFFFFF06
S3150000050010B544F28804C2F20004237863B940F2BD
S315000005100003C0F200032BB142F61C40C0F20000FB
S3150000052000E000BF0123237010BDC04640F2000367
S31500000530C0F2000310B54BB144F28C0142F61C40E8
S31500000540C2F20001C0F2000000E000BF10BDC046CC
S3150000055044F2541010B5012240F60F11C2F2000009
S3150000056000F008FC10BDC04644F2541010B500223D
S3150000057040F60F11C2F2000000F0FCFB10BDC046B1
S315000005800379022B05D144F250130122C2F2000373
S315000005901A70704710B544F26C1442F64811C2F254
S315000005A00004C0F20001200000F0F4FC200044F238
S315000005B05C1400F045FD42F65C11C2F20004C0F284
S315000005C00001200000F0E6FC200000F039FD42F6B4
S315000005D07C1144F27C10C0F20001C2F2000000F06F
S315000005E0F7F844F20403C2F200031B68022200215A
S315000005F0986840F2004301F029F810BDF0B5C646F0
S31500000600904600B5002A19DD44F250140D0000266C
S315000006108F18C2F2000444F27C1001222900C2F2B3
S315000006200000267000F048F82378002BFCD0013536
S31500000630BD42F0D1404680BCB846F0BD40F200084D
S31500000640F8E7C04670B5FFF7A5FF42F62810C0F2DE
S31500000650000000F0F1FF40F2E835002442F63C10BD
S315000006602100C0F20000013400F060FFAC42F5D179
S31500000670F3E7C04600B583B040B94CF200039022C0
S315000006800121C4F27E03995403B000BD0228FBD1B8
S3150000069042F6701344F25410C0F200035B68C2F2D3
S315000006A000001900019300F05FFCEDE710B5FFF7BD
S315000006B0C9FF002010BDC0467B2330B5046AA5786B
S315000006C02B40A37083789B079B0FD21A026180226E
S315000006D0CB18C360A3781343A37003238278134017
S315000006E0022B03D00B78E370002030BD4FF600627A
S315000006F00B881343E381F7E7F0B51F250124154066
S31500000700AC404EF20015C64653092033CEF2000522
S315000007109B0000B588465C51BFF34F8FBFF36F8FC8
S31500000720130046F20004C033C4F200049B001D59B6
S31500000730124E35401D511B594EF20011FF24032560
S31500000740CEF200018C46210040F200371540ED0044
S31500000750A94093089B006344DE5992008E434146AC
S3150000076089010C40AC403443DC5144F2F013C2F230
S315000007700003D05080BCB846F0BDC046FFFFFEFF68
S31500000780F0B5C64600B50500806A84B08C46904632
S315000007906C46D8B12300060086CE86C336681E6036
S315000007A0EB691B7803606346836043460371EB6A1B
S315000007B0C3606B6A9847AB6A23B107CC07C31A00BC
S315000007C02368136004B080BCB846F0BD2000E7E79C
S315000007D043F60002C0F200229446F8B54546DE46CE
S315000007E057464E460B78E0B563445B01036200232F
S315000007F003704A690D0042628A69C161C2620322BE
S31500000800012183628378040093430B4383706B78E2
S3150000081023B9837893430222134383700B2220006B
S31500000820AA56A97AFFF768FF05222000AA56297959
S31500000830FFF762FF07222000AA56A979FFF75CFF9F
S3150000084009222000AA56297AFFF756FFEFF31086F1
S31500000850012080F31088802146F6FC732F78090664
S31500000860F940C4F204035A688A435A605B6886F307
S3150000087010880022236A29789A701A715A729A721D
S31500000880DA725A8340F20722CA40104201D040224F
S31500000890DA7406221A7709B9754A9A82AA78E9782B
S315000008A01201C9000A436978032900D1DCE0481E19
S315000008B08141102049420140E231D2B21A7002222F
S315000008C09971E969FF26087B4000024020205A738F
S315000008D04A788D78D2016D012840324002430020CB
S315000008E018720878851E8346012D00D8B4E00327C8
S315000008F04D68D2B2DA71AA786E785A701A783E408C
S31500000900BA4332431A70EA7859379A74DE792A78EC
S31500000910BE433A403243DA71002305222361A361C4
S31500000920E3606361E369534F9A5646F2000315008C
S31500000930C035C4F20003AD00EE58BC463E40EE5052
S31500000940ED58BFF35F8F40F21F0A01265546370068
S315000009501540AF404EF20015CEF20005A94640F212
S315000009608015520992004A445751176040F2C00858
S31500000970E2696046D27A52B290444746BF00B84612
S31500000980FF5807404046C750C058BFF35F8F5746D1
S315000009901740B8463700404687404EF20010CEF268
S315000009A000008146520992004A445751176040F2AE
S315000009B0C008E269D27952B290444046800080462F
S315000009C0C0580700604607404046C750C058BFF3AE
S315000009D05F8F57461740B8463700404687404EF26D
S315000009E00010CEF200008146520992004A44575147
S315000009F0176040F2C008E2696746527A52B29044E4
S31500000A00404680008046C05807404046C750C358FD
S31500000A10BFF35F8F4EF200135746CEF20003174026
S31500000A209C46BE405209920062445651166003230A
S31500000A30584618406D331843236A98704B89002036
S31500000A40238144F65513C5F243336360F0BCBB46BD
S31500000A50B246A946A046F8BD5E70022801D110250F
S31500000A602A43D2B2DA7157E73D310A43B23124E75D
S31500000A7000F8FFFFFFFFFEFF70B5EFF30383103BA7
S31500000A805BB21A0046F20001C032C4F200019200C5
S31500000A9050581D4C20405050525844F2F0129B00C2
S31500000AA0C2F200029858C3691B6913B1036913B1F6
S31500000AB070BD036983B97F23026A91780B400421D4
S31500000AC00B4393700023C360436A002BF0D080224F
S31500000AD00021FFF755FEEBE703218278114002293A
S31500000AE00AD0C168056A0C78EC709207920F9B1ABF
S31500000AF08A180361C260DAE74FF60065C1680C88A0
S31500000B002C43056AEC81F0E7FFFFFEFF10B582B0CB
S31500000B10EFF30383103B5BB21A0046F20001C032CA
S31500000B20C4F20001920050581F4C204050505258B9
S31500000B3044F2F0129B00C2F200029C580323A278F2
S31500000B401340022B0DD0236A5979A369C9B20191CA
S31500000B5083B9636A1BB104222000FFF711FE02B0BD
S31500000B6010BD40F2FF11236A1B8A1940A369019147
S31500000B70002BEED09207920F606901A900F0C4FC29
S31500000B80A37862699B079B0FD2186261A269D31A88
S31500000B90A361002BE3D1636A002BE0D00122002180
S31500000BA02000FFF7EDFDDAE7FFFFFEFF10B5EFF3DC
S31500000BB0038444F2F013103C64B2C2F20003A200B4
S31500000BC0D0587B23026A91780B409370436A1BB11D
S31500000BD002220021FFF7D4FD230046F20002C033B3
S31500000BE0C4F200029B0099580248014099509B5854
S31500000BF010BDC046FFFFFEFF70B5EFF3038444F25D
S31500000C00F013103C64B2C2F20003A200D0580323D2
S31500000C1082781340022B22D0036A5979C9B238224E
S31500000C201D792A40ED0602D51D7FED0714D538261D
S31500000C301D79B5431D71436A0BB1FFF7A1FD230072
S31500000C4046F20002C033C4F200029B0099580748DE
S31500000C50014099509B5870BD40252A43E7E740F272
S31500000C60FF11036A1A8A1140D9E7C046FFFFFEFF4B
S31500000C7000230360002070470800F0B5EFF31084EE
S31500000C80012383F3108844F2EC13C2F200031968BF
S31500000C9031B940F60055C4F20405E9704031E970F7
S31500000CA019680131196084F31088040AD10320D42D
S31500000CB0FF210140200140F600044018C4F204045C
S31500000CC080000251EFF31082012181F31088196828
S31500000CD011B11968013919601B6833B940F6005122
S31500000CE0C4F20401CB708033CB7082F310880020ED
S31500000CF0F0BDFF2140F60005014020014418C4F272
S31500000D000405A4006759034E3740164067516651E3
S31500000D10D1E7C046FFFFFEFF0B00FF20034040F671
S31500000D200000090A0901C918C4F2040089000B5819
S31500000D309B07DB0F002013707047C0460023C4F2E8
S31500000D4004039C46090A490161444B68002013804C
S31500000D507047C0460020C4F2040084461800090A01
S31500000D6090430004134049010343614400208B6013
S31500000D707047C046FF2001230840834052B91B0438
S31500000D800022C4F204029446090A49016144002083
S31500000D908B6070474FF6FF721340F1E70020C4F2F4
S31500000DA0040084461800090A490110B561440C681C
S31500000DB010402043934398430860002010BDC0466E
S31500000DC00023C4F204039C46090A490161444B68A6
S31500000DD000201B0C138070470020C4F204008446D8
S31500000DE010B50B0A5B0163445C68FF231940FE3BA8
S31500000DF08B40240C99B223405B1A59424B41002088
S31500000E00137010BD0020C4F2040084461800090ABD
S31500000E109043000413404901034361440020CB6022
S31500000E207047C0460B0A10B55B01012A10D000229C
S31500000E30C4F204029446FF208022014052028A40F6
S31500000E406344DC682243120C12040020DA6010BDF1
S31500000E500020C4F204008446FF2001408A401100AD
S31500000E604FF6FF726344DC68114021430A40ECE709
S31500000E70F0B5DE4657464E464546E0B583B0EFF33D
S31500000E801082012383F3108844F2EC13C2F20003AC
S31500000E9001931B6833B940F60054C4F20404E370AE
S31500000EA04033E370019C23680133236082F310888A
S31500000EB00388C3B30B6840F60004984680235B02A0
S31500000EC09C46284B00229A46C4F204040DE0330ADD
S31500000ED09946FF231E404B461B019B199B00195147
S31500000EE00132038892B293421DD96346D100414430
S31500000EF08E8809681942EAD0330A9946FF231E40B4
S31500000F004B4657461B019D19AD00A9462D593D403C
S31500000F10AB464D465F462F5155460D40AB464D46B6
S31500000F205F462F51D9E7EFF31082012383F3108830
S31500000F30019B1B681BB101990B68013B0B60019B70
S31500000F401B6833B940F60051C4F20401CB708033FC
S31500000F50CB7082F3108803B0F0BCBB46B246A946FC
S31500000F60A046F0BDFFFFFEFF45F25423020010B578
S31500000F70C5F24F03080013600431FFF779FF002024
S31500000F8010BDC04610B508000431FFF771FF002000
S31500000F9010BDC046F0B54646D6464F460224C0B5FB
S31500000FA00C5746F20005A3009C4640F20032C4F2FC
S31500000FB0000504716544AB5846F2000798460023C5
S31500000FC0AA468E68AB508660CE68C4F20007C6603B
S31500000FD00E784671BB550B79CD781B012B434D79A5
S31500000FE0DBB2ED012B43DBB2BB5555464346AB5056
S31500000FF0002C1ADB4EF20013CEF2000398460323B0
S31500001000A5081C404B78FF21E4009B010B40A14042
S31500001010A340AD004544AE588E433343AB5044F233
S31500001020F0136246C2F20003D05044F25533C0F2C8
S31500001030490303600020E0BCBA46B146A846F0BDAD
S31500001040042310B5C35646F200011A00C032C4F29A
S315000010500001920050580C4C204050505258BFF39B
S315000010605F8F1F21012219408A404EF20011CEF2F5
S3150000107000018C4640F280115B099B0063445A5084
S315000010801A60002010BDC046FFFFFEFF30B583B0DA
S31500001090EFF3038444F2F013103C64B2C2F200038F
S315000010A0A200D15846F200024879C4F20002135C4D
S315000010B09B079B0F032B0FD0C034A400A358104DE1
S315000010C02B40A350A3588B6823B1CA6801900092A5
S315000010D06846984703B030BD8B6823B1CA68019053
S315000010E000926846984746F20003C034A400C4F252
S315000010F00003E25802490A40E250E358EAE7C046D4
S31500001100FFFFFEFF4EF20003A022C4F201039A5C29
S31500001110824217D036229A5C1AB93C215A5CD20711
S31500001120FCD54EF20002A021C4F20102535CDB069C
S31500001130FCD450544EF20002A021C4F20102535CCA
S31500001140DB06FCD47047C0464EF20003262244F26A
S315000011507001C4F20103985C1B6A8000C2F20001B0
S3150000116041585B015B0F44F27822D940C2F200027B
S3150000117011607047F8B54EF2000440F2FE332D4A76
S31500001180C4F20104E2524CF20003002743F6C8728F
S31500001190C4F27E039F5444F2700546F60043C2F241
S315000011A00005C0F2DC232B6041F20023C0F27A0373
S315000011B06B6048F20003AB602623EF602F61E25CB0
S315000011C0236A9200AA585B015B0F44F27826DA4044
S315000011D0C2F2000640F28043326001220020E2544F
S315000011E0FFF790FF36233C21E754635CDB07FCD511
S315000011F001213123E1544FF6C473C4F27E03197002
S3150000120040F2001300202362DA3BE054E05C236ADC
S31500001210800028585B015B0FD84040F2FE333060F7
S31500001220054843F6C872E0524CF20003C4F27E034E
S315000012309954F8BD03A5FFFF00A5FFFF44F2000384
S3150000124028220021C4F204039954704746F2000391
S3150000125040F2401270B500240126C4F200039D5AE4
S31500001260ADB22B00E340E0B21E4209D044F2AC120C
S31500001270C2F200029446A30063441B6803B1984778
S315000012800134102CEDD146F2000340F23012C4F2C4
S3150000129000039D5270BDC04646F200000023C4F212
S315000012A0000042F62832C0F200029A1811781A009D
S315000012B0C032920001331150202BF2D17047C04644
S315000012C070B5EFF31081012383F3108844F2702385
S315000012D04000C2F200031A5A1AB11A5A013A92B2DF
S315000012E01A521B5A83B94EF2000240F2FE3542F6FC
S315000012F07C34C4F20102565B054BC0F20004205A4E
S31500001300334383439BB2535381F3108870BDC04669
S3150000131000A5FFFF70B5EFF31081012383F310885A
S3150000132044F270224000C2F20002135A83B94EF210
S31500001330000442F67C3540F2FE36C4F20104C0F2E7
S315000013400005A35B2D5A2B434AF200552B43A353AA
S31500001350135A01339BB2135281F3108870BDC046F5
S3150000136044F2A402C2F200020300106810B558B19C
S31500001370032103338B4345F29021C318C2F20001C7
S315000013808B4207D8136010BD44F29020C2F20000D1
S315000013901060EDE700F0B2F80C2303600120404234
S315000013A0F1E7C04600BE704710B500F003F8FFF73E
S315000013B07DF9FEE7F0B54EF6005340F20005CEF299
S315000013C00003C0F2000583B09D600020FFF752F9CC
S315000013D0FFF7D0FE6B460027DC1D2770012023781F
S315000013E0FFF798FFEFF31081012686F3108846F683
S315000013F0FC73C4F204039A683C4802409A609A68F7
S3150000140081F3108840F60001C4F204010A68D2078D
S31500001410D20F22700A68D207D20F22700A68D2074A
S31500001420D20F2270EFF3108186F31088802298681D
S31500001430520502439A609B6881F310880120FFF7EA
S315000014403FFF0120FFF716F940F60053284AC4F281
S3150000145000039F8027491A802A6841F2000051182C
S315000014609960DA6046F2000240F22011C4F20002EE
S31500001470505244F28C2244F28800C2F20002C2F2B8
S3150000148000009E800021121A00F047F844F2000086
S3150000149044F2700242F62041C2F20000C2F200029B
S315000014A0121AC0F2000100F02FF844F2680544F267
S315000014B06C03C2F20005C2F200035B1B9E10002BF8
S315000014C005DD002408CD01349847A642FADCFFF773
S315000014D03BFEFFF7B3FE0220FFF7CCF8FFF7DCFE7A
S315000014E0002000F009F803B0F0BDC046FFFFFFEF93
S315000014F000A5FFFF00FCFFFF7047C046014B1868C0
S315000015007047C04604400020002310B59A4200D11F
S3150000151010BDCC5CC4540133F8E703008218934233
S3150000152000D1704719700133F9E7FFFF0FB40A4B7A
S3150000153013B51C6824B1A36913B9200000F038FB69
S3150000154005AB2000049AA168019300F013FD16BCB8
S3150000155008BC04B01847C0460440002070B505001A
S315000015600E0018B183690BB900F022FBAB69AC68B9
S3150000157013B9280000F01CFB2C4B9C4220D16C6850
S31500001580636EDB0705D4A3899B0502D4A06D00F02A
S31500001590AEFBA3891B0701D5236943BB21002800A5
S315000015A000F06AF918B301256D42636EDB0705D4B6
S315000015B0A3899B0502D4A06D00F09AFB280070BD9C
S315000015C01B4B9C4201D1AC68DAE71A4B9C42D7D13F
S315000015D0EC68D5E70136A360002B04DAA2699A42CB
S315000015E016DC0A2914D023685A1C22601970A368D5
S315000015F03178013B0029EDD1A360002B0FDA2800DA
S3150000160022000A3100F0E6F80A25431CCDD1CAE7CC
S315000016102200280000F0DEF8431CE8D1C3E70A25C3
S3150000162023685A1C22601D70BFE7C046A82B000025
S31500001630C82B0000882B000010B5034B010018686A
S31500001640FFF78CFF10BDC04604400020F0B51D001A
S315000016505B4B85B01E6804000F00009226B1B3698B
S3150000166013B9300000F0A4FA564B9C4260D174685E
S31500001670009B022B05D0012B00D99CE0002D00DA3F
S3150000168099E0636EDB0705D4A3899B0502D4A06DA0
S3150000169000F02DFB2100300000F0ECF9616B41B148
S315000016A023004433994202D0300000F095FB00231A
S315000016B063630023A3616360A3891B0603D530001F
S315000016C0216900F089FBA3893F4A1340A381009B4F
S315000016D0022B00D169E003AB2100300002AA00F022
S315000016E009FBA3890343A38165BB029D280000F083
S315000016F069FB0700002853D1029B0193AB4248D1F6
S3150000170001256D420223A289616E13430022A26065
S31500001710220047322260226101221BB2A38162614C
S31500001720114233D19B0531D4A06D00F0E1FA2DE0D2
S31500001730264B9C4201D1B4689AE7254B9C4297D12F
S31500001740F46895E7002FD1D0B36913B9300000F0E3
S315000017502FFA009B012B02D1A2891343A381A289F0
S315000017600823110027602761656119401A4220D0BD
S31500001770D3071CD500236D42A360A561616E0123CA
S315000017800D001D40194219D19305CDD5280005B08D
S31500001790F0BD019800F016FB019D07000028AFD0B0
S315000017A08023A2891343A381CEE70025AAE7A5607B
S315000017B0E4E7A160E2E701256D42E7E70025E5E7FA
S315000017C004400020A82B00005CF3FFFFC82B00009C
S315000017D0882B0000F8B505000E00140018B18369C7
S315000017E00BB900F0E5F9214B9C422CD16C68A3693A
S315000017F0A360A3891B0730D52369002B2DD023684E
S315000018002269F7B2981A6369F6B2834204DC2100B2
S31500001810280000F02FF930BBA3680130013BA3601C
S3150000182023685A1C22601F706369834204D0A3890F
S31500001830DB0706D50A2E04D12100280000F01AF98C
S3150000184088B93000F8BD0A4B9C4201D1AC68CEE79E
S31500001850084B9C42CBD1EC68C9E72100280000F078
S315000018600BF80028CBD001267642EAE7A82B000029
S31500001870C82B0000882B0000354B70B51D6806008C
S315000018800C0025B1AB6913B9280000F091F9314B72
S315000018909C420FD16C680C23E25E93B211072CD4E4
S315000018A0D90611D409230120336037331343A381AA
S315000018B0404270BD284B9C4201D1AC68EBE7274BF8
S315000018C09C42E8D1EC68E6E75B0712D5616B41B153
S315000018D023004433994202D0300000F07DFA002301
S315000018E063632422A3899343A3810023636023694E
S315000018F023600823A2891343A38123695BB940F2BD
S31500001900802140F20022A3890B40934203D021009C
S31500001910300000F017FA0C22A35E01201A0099B2DB
S31500001920024003420FD00022A26062695242A261C5
S3150000193022690020002ABCD10A06BAD540221343E8
S31500001940A3810138B5E7880700D46269A260EFE792
S3150000195004400020A82B0000C82B0000882B0000A4
S31500001960F7B58B8905000C001A075DD44A68002A72
S3150000197004DC0A6C002A01DC0020FEBDE76A002FA9
S31500001980FAD0002241F200012E682A601A000A40AD
S315000019900B4232D0606DA3895B0705D56368C01A18
S315000019A0636B0BB1236CC01A0200216A0023280066
S315000019B0E76AB847A189431C06D12B681D2B30D88E
S315000019C02B4ADA40D3072CD50023636023692360B2
S315000019D0CB0404D5431C01D12B6803B96065616B48
S315000019E02E600029C8D023004433994202D0280033
S315000019F000F0F2F900206063BFE701232800216AA6
S31500001A00B847431CC7D12B68002BC4D01D2B01D06F
S31500001A10162B01D12E60AFE74023A2891343A38181
S31500001A20ABE740230B43FAE70F69002FA4D00A68FF
S31500001A300F60D21B019200229B0700D14A69A26067
S31500001A40019B002B98DD3A002800019B216AA66ABB
S31500001A50B047002806DC40230120A28940421343F8
S31500001A60A3818AE7019B3F181B1A0193E8E7C0464A
S31500001A70010040200B6970B505000C0013B9002564
S31500001A80280070BD18B183690BB900F091F8144BAA
S31500001A909C421BD16C680C22A35E002BEFD0626EB9
S31500001AA0D20704D49B0502D4A06D00F020F92800CB
S31500001AB02100FFF755FF636E0500DB07E0D4A3891D
S31500001AC09B05DDD4A06D00F013F9D9E7054B9C42C8
S31500001AD001D1AC68DFE7044B9C42DCD1EC68DAE765
S31500001AE0A82B0000C82B0000882B0000002310B58F
S31500001AF00400036043608360818143661900C281EC
S31500001B0003614361836108225C30FFF706FD054BE4
S31500001B106362054B2462A362044BE362044B2363B6
S31500001B2010BDC046ED240000152500004D2500001F
S31500001B307925000010B5024900F0B8F810BDC0467E
S31500001B40751A000070B568254A1E55430E00290017
S31500001B50743100F08BF9040040B100212A000160C5
S31500001B6046600C30A0606832FFF7D7FC200070BDDD
S31500001B7010B5024800F0BBF810BDC04684420020F4
S31500001B8010B5024800F0B4F810BDC04684420020EB
S31500001B9010B5024800F0ABF810BDC0467F420020E9
S31500001BA010B5024800F0A4F810BDC0467F420020E0
S31500001BB013B50400FFF7ECFFA36913B1FFF7F0FFBD
S31500001BC013BDA364E3642365134B144A1B68A26226
S31500001BD00193A34201D10123A361200000F020F864
S31500001BE06060200000F01CF8A060200000F018F8EB
S31500001BF000220421E0606068FFF778FF01220921D6
S31500001C00A068FFF773FF02221221E068FFF76EFF5C
S31500001C100123A361D2E7C046842B0000351B0000D8
S31500001C20F8B50700FFF7A4FF1E4B1E68B36913B98A
S31500001C303000FFF7BDFF4836B4687368013B03D533
S31500001C4033680BB33668F7E70C22A55ED5B92000DA
S31500001C50154B5830E360656600F048F8FFF790FFD3
S31500001C602000082229002560A56065602561656160
S31500001C70A5615C30FFF751FC6563A563A564E56467
S31500001C802000F8BD6834D9E704213800FFF75AFF71
S31500001C90040030600028D5D1FFF772FF0C233B60AB
S31500001CA0EEE7C046842B00000100FFFFF7B50400F5
S31500001CB006000027019148346368A5680093009BDD
S31500001CC0013B009304D52468002CF5D13800FEBDF5
S31500001CD0AB89012B08D90E22AB5E013304D0290053
S31500001CE03000019B984707436835E8E7704770471F
S31500001CF07047FFFF70B50E001D000E23C95E14006D
S31500001D0096B0002907DA00232B60B3891B0611D48D
S31500001D1040F200430FE06A4600F056FC0028F2DB72
S31500001D204FF2000301991940054BC9184B4259411E
S31500001D302960EDE740230020236016B070BDC04641
S31500001D4000E0FFFFF7B502268B8905000C00334241
S31500001D5006D0230047332360236101236361F7BD67
S31500001D606A4601ABFFF7C6FF00990700280000F09E
S31500001D707DF840B90C22A35E9A05F0D40322934362
S31500001D801E43A681E5E70E4BAB628023A289206045
S31500001D901343A381009B20616361019B63B128000B
S31500001DA00E23E15E00F022FC30B10322A3899343A7
S31500001DB01A0001231343A381A0890743A781CEE715
S31500001DC0351B000010B5034B0100186800F04EF8F3
S31500001DD010BDC0460440002070B5050081B10C1F3F
S31500001DE02368002B00DAE418280000F02DFC1E4AB8
S31500001DF0136811002BB963601460280000F02CFCF6
S31500001E0070BDA3420AD92268A018834203D118687C
S31500001E105B688218226063600C60EEE71A005B68FC
S31500001E200BB1A342FAD911685018A0420BD1206811
S31500001E300918501811608342DFD118685B68411891
S31500001E4011605360D9E7A04202D90C232B60D4E776
S31500001E5021686018834203D118685B6841182160C5
S31500001E6063605460C9E7C046A8400020F8B5032364
S31500001E70CD1C9D43083506000C2D1DD20C25A9420C
S31500001E801CD8300000F0E0FB24490A681400CCB9E5
S31500001E90234F3B6823B92100300000F017FB386060
S31500001EA02900300000F012FB431C2BD10C2330001C
S31500001EB0336000F0D1FB03E0002DE0DA0C23336041
S31500001EC00020F8BD23685B1B19D40B2B03D92360B4
S31500001ED0E418256003E06368A2420ED10B6030006F
S31500001EE000F0BAFB200007220B30231D9043C21AD4
S31500001EF09842E6D01B1AA350E3E75360EFE72200AF
S31500001F006468C4E70323C41C9C43A042E1D0211AA1
S31500001F10300000F0DBFA431CDBD1C7E7A840002005
S31500001F20AC400020936810B5013B9360002B04DAA7
S31500001F309469A34207DB0A2905D01368581C106070
S31500001F401970080010BDFFF745FC0100F9E7F8B568
S31500001F5006000F001400D518AC4201D1002007E09E
S31500001F6021783A003000FFF7DDFF0134431CF3D13E
S31500001F70F8BDFFFFF0B5A1B007000C001E000392EC
S31500001F8018B183690BB9FFF713FE8B4B9C421AD12C
S31500001F907C68636EDB0705D4A3899B0502D4A06D1C
S31500001FA0FFF7A5FEA3891B0701D52369E3B9210025
S31500001FB03800FFF761FCB8B1636EDB070DD5012071
S31500001FC0404221B0F0BD7D4B9C4201D1BC68E0E7A8
S31500001FD07B4B9C42DDD1FC68DBE7A3899B05EED4F5
S31500001FE0A06DFFF785FEEAE7002308AD6B6120339D
S31500001FF06B761033AB760796039E33780BB1252BA1
S315000020004DD1039BF31A0593039B9E420DD0059B6E
S3150000201021003800039AFFF79AFF431C00D1B3E072
S315000020206A69059B944663446B613378002B00D143
S31500002030AAE00122731C0393002352426A6004A99A
S31500002040543252182B60EB60AB601370AB65039B88
S31500002050052219785B4800F0EBFA039B5E1C00BB77
S315000020602A68D30604D5532304A95B1820211970C6
S31500002070130704D5532304A95B182B211970039B5E
S315000020801B782A2B16D0002140F20A0CEB68039E1F
S315000020903278701C303A092A4CD989B917E00136D2
S315000020A0ABE7484B2A68C01A0123834013432B60D1
S315000020B00396CCE7079B191D1B680791002B01DBD4
S315000020C00B9304E05B42EB60022313432B603378EF
S315000020D02E2B0AD173782A2B35D1079B02361A1D6F
S315000020E01B680792002B2BDB0993032231783648B5
S315000020F000F09EFA38B1344B2A68C01A4023834058
S31500002100134301362B603178731C06222F48039344
S31500002110297600F08DFA002845D02D4B43BB0722C7
S31500002120079B07339343083307936B69049A9B18FD
S315000021306B6161E761464B43060001219B18A7E7E7
S3150000214001235B42D0E7002340F20A0C1A00013655
S315000021506B603178701C3039092903D9002BC4D043
S315000021600992C2E763465A43060001235218F0E774
S3150000217007AB0093220029003800164B00E000BF91
S315000021800490049B0133D0D1636EDB0705D4A38989
S315000021909B0502D4A06DFFF7ABFDA3895B0600D5B6
S315000021A00DE70D980DE707AB0093220029003800D4
S315000021B0084B00F07FF8E3E7A82B0000C82B0000CF
S315000021C0882B0000E82B0000EE2B0000F22B00000D
S315000021D0000000004F1F0000F7B5150001938A6844
S315000021E00B690C000090934200DA130022002B606A
S315000021F0433212780AB101332B6023689B0602D55D
S315000022002B6802332B602268062317001F401A42F0
S3150000221027D0230043331B785A1E93412268920627
S3150000222030D4220001990098089E4332B047431CDF
S3150000223025D0062320682A68E16800250340042B80
S3150000224003D18D1AEB43DB171D40A3682269934225
S3150000225001DD9B1AED180027BD4220D1002010E0B9
S315000022600137E3682A689B1ABB42D2DD22000123AC
S3150000227001990098089E1932B047431CF0D10120FD
S315000022804042FEBD3020E1184331087021005A1C3F
S3150000229045310978A218433202331170C1E7220092
S315000022A0012301990098089E1A32B047431CE6D0D4
S315000022B00137D1E7F0B50E0089B00492039005937B
S315000022C00C00097E0E9A4336782907D8622909D868
S315000022D0002900D1BCE0582900D184E02500423510
S315000022E0297022E0080063381528F7D800F0CEF9E7
S315000022F016001F00F6FFF6FFF6FFF6FF1F00F6FFBB
S31500002300F6FFF6FFF6FFA30034009200F6FFF6FF95
S31500002310B400F6FF3400F6FFF6FF960025001368BA
S315000023204235191D1B6811602B700123A1E013684B
S315000023302068191D050609D51B681160002B02DAF5
S315000023402D225B4232700A225E4914E01B6811603E
S315000023504006F3D51BB2F1E713682568181D106017
S315000023601B682F063BD56F2962D00A2255492000EB
S315000023700025433005706068A060002803DB042553
S315000023802768AF4327600BB9350060B13500B3FB52
S31500002390F2FC60465043181A085C013D287018008C
S315000023A063468242F3D9082A09D12368DB0706D59A
S315000023B063682269934202DC3023013D2B70761B51
S315000023C02661059B210000930398049B07AAFFF74B
S315000023D003FF431C51D10120404209B0F0BD6D06F8
S315000023E0C1D59BB2BFE72300453319703549106844
S315000023F0256808C810602F0616D5EA0702D52022E0
S31500002400154325601022002BB1D120202568854375
S315000024102560ACE7202321680B4323602300782145
S31500002420453319702849E2E76F06E6D59BB2E4E723
S31500002430082224499BE713682568181D6169106006
S315000024401B682F0601D5196002E06D06FBD51980C1
S31500002450002335002361B4E71368191D11601D6858
S3150000246000212800626800F0E3F808B1401B6060B4
S315000024706368236100233370A3E72A002369049964
S315000024800398059DA847431CA5D023689B0716D42F
S31500002490079BE0689842A0DA18009EE72200012315
S315000024A004990398059E1932B047431C00D192E760
S315000024B00135E368079A9B1AAB42EFDCE8E7002593
S315000024C0F7E7C046F92B00000A2C0000002370B580
S315000024D0054D040008002B60FEF742FF431C02D1A5
S315000024E02B6803B1236070BD8842002070B50C00D4
S315000024F00E25495F00F0B8F8002803DB636D1B1852
S31500002500636570BDA389024A1340A381F9E7C046FB
S31500002510FFEFFFFFF8B51F008B8905000C001600C2
S31500002520DB0505D50E23C95E0022022300F06EF8F6
S31500002530A389054A28001340A38132000E23E15ED9
S315000025403B0000F01FF8F8BDFFEFFFFF70B50C0071
S315000025500E25495F00F05AF8A389421C03D1054AAB
S315000025601340A38170BD41F200021343A38160654D
S31500002570F8E7C046FFEFFFFF10B50E23C95E00F077
S3150000258013F810BD70B50400080011001A000023EE
S31500002590044D2B60FEF732F8431C02D12B6803B1C1
S315000025A0236070BD88420020002370B5054D0400ED
S315000025B008002B6000F012F9431C02D12B6803B10E
S315000025C0236070BD88420020002370B5064D0400CC
S315000025D0080011002B6000F049F9431C02D12B685A
S315000025E003B1236070BDC04688420020002370B549
S315000025F0054D040008002B6000F045F9431C02D18C
S315000026002B6803B1236070BD8842002070B50400BA
S31500002610080011001A000023044D2B6000F0CDF8CD
S31500002620431C02D12B6803B1236070BD8842002091
S31500002630C9B28218904201D10020704703788B42BC
S31500002640FBD00130F6E7FFFF10B50248FFF74FFB5E
S3150000265010BDC0468042002010B50248FFF748FB77
S3150000266010BDC0468042002070B50400080011006D
S315000026701A000023044D2B6000F04AF8431C02D1D7
S315000026802B6803B1236070BD8842002003B47146F5
S31500002690490840004900095E49008E4403BC704762
S315000026A0094B10B50400186818B183690BB9FFF718
S315000026B07FFA0020132C06D8044BE400E3580133BC
S315000026C001D0024BE01810BD04400020B0400020AD
S315000026D0F8B50400431C09D1FEF710FF13260500C8
S315000026E00027301C391CABBE061C2E602000F8BD2E
S315000026F030B585B001AD0190029103920624201CED
S31500002700291CABBE041C2000FFF7E2FF05B030BD5C
S3150000271070B50E001500FFF7C3FF040030B9FEF7D1
S31500002720EDFE092303600120404270BD2A003100FE
S315000027300068FFF7DDFF431CF7D06368281A1B18F3
S315000027406360F2E7F7B50C001600FFF7A9FF050076
S3150000275038B9FEF7D3FE0923036001246442200042
S31500002760FEBD022E03D9FEF7C9FE1623F4E7012E9D
S3150000277012D14368E418F6D46F462B680A260093F4
S315000027807C60301C391CABBE061C3000FFF7A0FF76
S315000027900028E2DB6C60E2E7022EEDD103686F46AB
S315000027A000930A36301C391CABBE061C3000FFF7FE
S315000027B08FFF2418431CDFD1CFE710B5FFF7C2FF08
S315000027C010BD37B50224019001AD201C291CABBEFB
S315000027D0041C2000FFF77CFF3EBDFFFF70B505001F
S315000027E0FFF75EFF040030B9FEF788FE0923036099
S315000027F00120404270BD013D012D09D8094B9A6860
S315000028001B699A4204D101235B4203600020F1E771
S315000028102068FFF7D6FF0028ECD101235B42236036
S31500002820E8E7C046B040002070B50C00FFF738FF5F
S31500002830050030B9FEF762FE09230360012040421D
S3150000284070BD42F2000362680C261343636040F2D7
S315000028500043A364301C291CABBE051C2800FFF7EF
S3150000286037FF431CECD020610020E9E770B50C006F
S315000028700500582200212000FEF74FFE2800210007
S31500002880FFF7D2FF70BD70B5FFF70AFF09250400F8
S3150000289020B9FEF733FE0560200070BD281C211C00
S315000028A0ABBE041C2000012CF7D0FEF727FE002447
S315000028B005001326301C211CABBE061C2E60EBE760
S315000028C04275696C7420776974682052656E657309
S315000028D0617320416476616E63656420466C657839
S315000028E069626C6520536F6674776172652050610A
S315000028F0636B6167652076657273696F6E20342E2F
S31500002900342E3000342E342E300000000000040433
S31500002910F8B5C046F8BC08BC9E467047F8B5C04638
S31500002920F8BC08BC9E4670474170706C6963617460
S31500002930696F6E2053746172740D00004C6F6F7076
S31500002940205B25645D0D0A0003020B0103000000F5
S31500002950510500000000000000000000070207010A
S3150000296003000000690500000000000000000000F0
S3150000297054410020B0290000482B0000000200004E
S315000029800200020102020203000000000000000033
S3150000299081050000000000009C29000000010000E5
S315000029A0004000200F00FFFF00000000FFFF0000B6
S315000029B02E000000B8290000008000000000000082
S315000029C000800000010000000080000002000000FE
S315000029D0008000000300000000400000040000002A
S315000029E0008000000C000000008000000D000000C8
S315000029F0004000000F00000000000106000100007A
S31500002A0000000106010100000000010602010000AD
S31500002A10000001060301000004000000040100009C
S31500002A200000010605010000000001060601000085
S31500002A30040000000701000000000100080100007A
S31500002A400400000009010000104000000A01000017
S31500002A50000001030B010000040000000C0100004F
S31500002A60040000000D010000000001040502000042
S31500002A700000010406020000040000000702000036
S31500002A80040000000802000000000100000300002E
S31500002A90400001040103000040000104020300009D
S31500002AA0040000000303000004000000040300000B
S31500002AB000000105000400000000010501040000FB
S31500002AC000000105020400000000010503040000E7
S31500002AD000000107070400000000010708040000C9
S31500002AE01040000009040000040000000A04000071
S31500002AF0104000000B040000040000000005000068
S31500002B004000010501050000400001050205000026
S31500002B10040000000D090000040000000E0900007A
S31500002B20040000000F09000012100F0F0000001132
S31500002B30000000010000000000000000000000008E
S31500002B400000000000000000690F0000710C00008A
S31500002B50850F0000790C0000D90D0000250E00003D
S31500002B60190D0000750D00009D0D0000C10D00003F
S31500002B70050E00003D0D0000550D0000010002008D
S31500002B8008001000084000200000000000000000BF
S31500002B90000000000000000000000000000000002F
S31500002BA0000000000000000000000000000000001F
S31500002BB0000000000000000000000000000000000F
S31500002BC000000000000000000000000000000000FF
S31500002BD000000000000000000000000000000000EF
S31500002BE00000000000000000232D302B2000686C40
S31500002BF04C0065666745464700303132333435361A
S31500002C003738394142434445460030313233343552
S31500002C103637383961626364656600FF000000007C
S31500002C2040000C000840002000000000A82B000017
S31500002C30C82B0000882B00000000000000000000E8
S31500002C40000000000000000000000000000000007E
S31500002C50000000000000000000000000000000006E
S31500002C60000000000000000000000000000000005E
S31500002C70000000000000000000000000000000004E
S31500002C8000000000000000002D0500000105000006
S31501010018FFFFFFFFFFFFFFFFFFFFFFFFFFFFFFFFE0
S31101010028FFFFFFFFFFFFFFFFFFFFFFFFD0
S705000013A93E
