S0120000375F54696D65725F454B2E737265638C
S31500000000904A0020D9170000C1160000D51700003D
S31500000010D5170000D5170000D5170000D51700002A
S31500000020000000000000000000000000D5170000DE
S31500000030D517000000000000D5170000D5170000F6
S3150000004031120000000000000000000069140000EA
S31500000050000000000000000000000000000000009A
S31500000060000000000000000000000000000000008A
S31500000070000000000000000000000000000000007A
S31500000080000000000000000000000000000000006A
S31500000400FFFFFFFFDFCEFFFFFCFF0F00FFFF0F0028
S31500000410FCFF0F00FFFF0F00FCFF0F00FFFF0F00A8
S31500000420FCFF0F20FFFF0F20FCFF7F40FFFF7F40F8
S31500000430FCFF0D40FFFF0D40FFFFFFFFFFFFFFFF2B
S31500000440FFFFFFFFFFFFFFFFFFFFFFFFFFFFFFFFB6
S31500000450FFFFFFFFFFFFFFFFFFFFFFFFFFFFFFFFA6
S31500000460FFFFFFFFFFFFFFFFFFFFFFFFFFFFFFFF96
S31500000470FFFFFFFFFFFFFFFFFFFFFFFFFFFFFFFF86
S31500000480FFFFFFFFFFFFFFFFFFFFFFFFFFFFFFFF76
S31500000490FFFFFFFFFFFFFFFFFFFFFFFFFFFFFFFF66
S315000004A0FFFFFFFFFFFFFFFFFFFFFFFFFFFFFFFF56
S315000004B0FFFFFFFFFFFFFFFFFFFFFFFFFFFFFFFF46
S315000004C0FFFFFFFFFFFFFFFFFFFFFFFFFFFFFFFF36
S315000004D0FFFFFFFFFFFFFFFFFFFFFFFFFFFFFFFF26
S315000004E0FFFFFFFFFFFFFFFFFFFFFFFFFFFFFFFF16
S315000004F0FFFFFFFFFFFFFFFFFFFFFFFFFFFFFFFF06
S3150000050010B544F28004C2F20004237863B940F2C5
S315000005100003C0F200032BB142F21440C0F2000007
S3150000052000E000BF0123237010BDC04640F2000367
S31500000530C0F2000310B54BB144F2840142F21440FC
S31500000540C2F20001C0F2000000E000BF10BDC046CC
S31500000550F8B58368C568CE4699465B1B47469846FC
S315000005604368040080B50E0017005819904509D954
S3150000057001F028FCBFF35F8FED19E560C0BCB946FA
S31500000580B046F8BD424601F01DFC4B463100ED1960
S31500000590ED1A2A006068414401F014FCBFF35F8F36
S315000005A0E560EBE7F8B54746CE46884680B51600C7
S315000005B0070040F20009C56884681CE0013B5B1B2C
S315000005C0641BB44200D934009C4200D91C007B68ED
S315000005D022004146581901F0F5FB2D19A144A0440B
S315000005E0361BBC68631B5A1E93415B421D40BFF31A
S315000005F05F8FFD6036B13B699D42DFD3013B1B191E
S315000006005B1BDDE74846C0BCB946B046F8BDC046F0
S3150000061010B544F2B444C2F20004A822002120001E
S3150000062001F0D9FB032341F688722361636144F22A
S31500000630AC03C0F20002C2F20003A261E36140F221
S31500000640004323620023A3626362E362226644F2EC
S315000006509C02C2F2000262661022A2662367E3666B
S315000006606367BFF35F8F41F694725321C0F20002B5
S3150000067001E00F215156E1540133013A102BF8D114
S31500000680BFF35F8F10BDC046F8B544F2B44345468C
S315000006904E46DE465746C2F200031B78E0B5884652
S315000006A006001500532B01D0FFF7B2FF44F2B44207
S315000006B0C2F2000294467700BB19DB0063441A6F4E
S315000006C09146DA6E924691452ED813004A462C0082
S315000006D09B1A9D4207D84CB92000F0BCBB46B246D7
S315000006E0A946A046F8BD1C00002CF5D0A24644F24F
S315000006F0B442C2F200029446BB19DB006344596E51
S31500000700220049444046A14401F05CFB5446002CBB
S31500000710E2D044F2B443C2F200039C464B46BE19F3
S31500000720F60066443367D7E74A469B6E2C009B1A51
S315000007309D4226D844F2B442C2F200029346BB1947
S31500000740DB009B445B465B6E22004B44190040462F
S3150000075001F038FB5B469B6EA1442D1B4B4512D026
S3150000076053464A469B1A9A46554506D8002DCED082
S31500000770A246A044AA442C00B9E75546002DC6D08F
S31500000780F6E71C00D6E740F20009EDE7431C70B51A
S3150000079004005800C01844F2B443C2F200039C4659
S315000007A063001B19DB006344DC6AC000150060446B
S315000007B0012C05D0022C1ED084B10024200070BD6F
S315000007C09A6A5C6AA2421FD9013A121B2C00954212
S315000007D000D914002200FFF7BBFEEFE79A6A5E6AB3
S315000007E0B2420CD9013A921B9542E7D82A00FFF78C
S315000007F0AFFE2C00E2E7FFF7D5FE0400DEE71B6A3A
S31500000800D218013A921BEFE71B6AD218013A121B63
S31500000810DCE7C046F8B544F2B443C2F200031B78E5
S3150000082004000D001600532B01D0FFF7F1FEEFF385
S315000008301087012181F31088320029002000FFF77C
S31500000840A5FF87F31088F8BD70B5050008000C00F9
S3150000085001F0C9FA210002002800FFF7DBFF70BD96
S3150000086010B582B0EFF31084012181F310886B4636
S315000008700122D91D0020FFF707FF84F31088012805
S3150000088003D16B46D87902B010BD01204042FAE789
S3150000089010B5FFF7E5FF0028FBDB10BDF8B544F205
S315000008A0B4464746CE46C2F2000680B51F003378EE
S315000008B0050089469046532B01D0FFF7A9FE022D6D
S315000008C02ED8EFF31083012181F31088002485B917
S315000008D044F2B442C2F2000294466419089AE40053
S315000008E06444E26283F310880020C0BCB946B04677
S315000008F0F8BD6A1C500080184A46C000325044F2C7
S31500000900B442C2F2000294464246002160446C00A2
S3150000091042606219D2006244176291625162D7E75F
S3150000092001204042E1E7C04610B5037903B110BD8E
S3150000093041F6A8710020C0F20001FFF785FFF6E737
S3150000094010B5037903B110BD41F6B0710020C0F2B5
S315000009500001FFF779FFF6E7002330B585B00C22DA
S31500000960002101A8009301F036FA41F6B871002083
S31500000970C0F20001FFF768FF6D460024FFF788FF0D
S31500000980C0B228703038092830D801340135102C0F
S31500000990F4D1684601F00AFA4EF20003020044F26E
S315000009A08C60C4F20103196A0723C2F200000068D2
S315000009B00C0E1C40A040090A0B40D84042F23403FA
S315000009C0C0F200031B7A0021D840002300F0CEFFBE
S315000009D040F2E832002300F0A9FF010044F264501F
S315000009E0C2F2000000F00AFA05B030BD00236A46E4
S315000009F01355CEE710B544F2645442F23401C2F204
S31500000A000004C0F20001200000F0ACFA200044F21D
S31500000A10845400F0EDF942F28401C2F20004C0F2FF
S31500000A200001200000F09EFA200000F0E1F910BD60
S31500000A3041F6E87100B5C0F2000183B00020FFF76F
S31500000A4003FF00230022002100930020FFF726FF6A
S31500000A50FFF7D0FF42F20C0144F2A450C0F20001AD
S31500000A60C2F2000000F036FC44F2A450C2F20000CC
S31500000A7000F0DEFCFFF770FF40F2E83140F2E830AC
S31500000A8000F0F0FDF6E7C04600B583B040B94CF281
S31500000A90000390220121C4F27E03995403B000BDE5
S31500000AA00228FBD142F2000344F25C50C0F200037C
S31500000AB05B68C2F200001900019300F083F9EDE7CC
S31500000AC010B5FFF7B5FF002010BDC0460023036038
S31500000AD0002070470800F0B5EFF31084012383F37C
S31500000AE0108844F20063C2F20003196831B940F677
S31500000AF00055C4F20405E9704031E9701968013106
S31500000B00196084F31088040AD10320D4FF21014020
S31500000B10200140F600044018C4F20404800002518B
S31500000B20EFF31082012181F31088196811B1196859
S31500000B30013919601B6833B940F60051C4F204014B
S31500000B40CB708033CB7082F310880020F0BDFF217C
S31500000B5040F60005014020014418C4F20405A40033
S31500000B606759034E3740164067516651D1E7C04674
S31500000B70FFFFFEFF0B00FF20034040F60000090ABE
S31500000B800901C918C4F2040089000B589B07DB0F42
S31500000B90002013707047C0460023C4F204039C462D
S31500000BA0090A490161444B68002013807047C0461A
S31500000BB00020C4F2040084461800090A9043000489
S31500000BC0134049010343614400208B607047C046CF
S31500000BD0FF2001230840834052B91B040022C4F2BF
S31500000BE004029446090A4901614400208B6070475B
S31500000BF04FF6FF721340F1E70020C4F2040084466A
S31500000C001800090A490110B561440C6810402043D8
S31500000C10934398430860002010BDC0460023C4F2E9
S31500000C2004039C46090A490161444B6800201B0CD9
S31500000C30138070470020C4F20400844610B50B0AE6
S31500000C405B0163445C68FF231940FE3B8B40240C28
S31500000C5099B223405B1A59424B410020137010BDD4
S31500000C600020C4F2040084461800090A90430004D8
S31500000C7013404901034361440020CB607047C046DE
S31500000C800B0A10B55B01012A10D00022C4F204023F
S31500000C909446FF208022014052028A406344DC6869
S31500000CA02243120C12040020DA6010BD0020C4F2A8
S31500000CB004008446FF2001408A4011004FF6FF726F
S31500000CC06344DC68114021430A40ECE7F0B5DE4698
S31500000CD057464E464546E0B583B0EFF310820123F2
S31500000CE083F3108844F20063C2F2000301931B6889
S31500000CF033B940F60054C4F20404E3704033E370A1
S31500000D00019C23680133236082F310880388C3B3F0
S31500000D100B6840F60004984680235B029C46284BED
S31500000D2000229A46C4F204040DE0330A9946FF23D2
S31500000D301E404B461B019B199B001951013203882B
S31500000D4092B293421DD96346D10041448E88096808
S31500000D501942EAD0330A9946FF231E404B465746AE
S31500000D601B019D19AD00A9462D593D40AB464D4688
S31500000D705F462F5155460D40AB464D465F462F51B7
S31500000D80D9E7EFF31082012383F31088019B1B68D8
S31500000D901BB101990B68013B0B60019B1B6833B9C2
S31500000DA040F60051C4F20401CB708033CB7082F35D
S31500000DB0108803B0F0BCBB46B246A946A046F0BDBB
S31500000DC0FFFFFEFF45F25423020010B5C5F24F03A4
S31500000DD0080013600431FFF779FF002010BDC046FC
S31500000DE010B508000431FFF771FF002010BDC046A2
S31500000DF08368C26800205A607047C04610B54468D0
S31500000E00836824784A1E9A661CB9490801395965CF
S31500000E109965D96AC90705D45A66AA22D2031A6403
S31500000E20C268DA60002010BDF0B5CE46474680B5F0
S31500000E3000283DDB40F2FF094EF2001403254E4622
S31500000E40CEF20004A44640F200370540ED00AE4065
S31500000E5083089B006344DC598901B44326004C4651
S31500000E600C40AC403443DC5144F204638100C2F2CE
S31500000E700003CA50030046F20002C033C4F2000267
S31500000E809B0099580C4C214099509B58BFF35F8F9B
S31500000E901F220123024093404EF20012CEF20002BE
S31500000EA0944640F2801240098000604483500360FB
S31500000EB0C0BCB946B046F0BDFFFFFEFFF0B5C64662
S31500000EC000B50500806984B08C46904601AC98B1A7
S31500000ED02300060086CE86C36346037143468360BD
S31500000EE0EB6903606B699847AB690BB107CC07C325
S31500000EF004B080BCB846F0BD2000EDE770B55542A1
S31500000F0055418C6E013425B9A24202D2013A1A60CB
S31500000F1070BD059BDB070FD54B6B0178DB02DB0E43
S31500000F2003290FD901211B094B400B4092B193B9FC
S31500000F300323049A1360EBE74B6B0178DB06DB0EA9
S31500000F400329EFD80C210B40043B59424B41DBB23D
S31500000F50002AECD11BB90223049A1360D8E7002CAF
S31500000F60F9D0E5E7F0B54546DE4657464E4601223E
S31500000F70E0B50D000B7C11009940040085B0C160FE
S31500000F804560002B00D1D2E0027440F28072C0F2BC
S31500000F904002944663441B02A3606B69EA6963617D
S31500000FA0AB699246E3610023A361EFF31087012248
S31500000FB082F3108846F6FC70C4F20400C268297CED
S31500000FC094464A425141202249420A406146413AEA
S31500000FD00A40C260C26887F310884AF20052A168CC
S31500000FE068680A60CB62CB638B642A7A2E785208D3
S31500000FF01206471E032E00D1CEE0CA6280221206D8
S315000010000A614A618A61524692694B628B62CA6181
S315000010105246D2690A6252468F664F66D76A02AA5C
S315000010209046012252429146029242465360002E59
S3150000103000D0EFE043080122380040F2030C4B4495
S3150000104002934B658B65002800D072E053461B78EF
S31500001050002B00D07BE0287853469B782BB3534671
S31500001060DB7898469B01994643464E461B0133431F
S315000010709B46022800D1C7E0032800D1D5E04646AA
S31500001080731E9E417642B04640F2030943464E46E1
S315000010901E40B04640F20609C84446465B46334306
S315000010A01B041F4380235B041F4340F28808002370
S315000010B046468B638B51564640F221082033F35C3B
S315000010C046465B03994653469E5D4B467607334339
S315000010D01F43AA23DB030B64012834D0E3681220E4
S315000010E0CB6063464F630B630A63697C2200285614
S315000010F0FFF79AFE52462223D15C0233D0562200D5
S31500001100FFF792FE52462323D15C0233D0562200CB
S31500001110FFF78AFE45F254030020C0F2470323601E
S3150000112005B0F0BCBB46B246A946A046F0BD037466
S315000011302BE7002388208B630B50AA232878DB0338
S315000011400B640128CAD10023CB640B65C6E753465E
S315000011505B78287898469B01994643464E461B0184
S3150000116033439B46022852D003285BD04646731E63
S315000011709E417642B04640F2030943464E461E4023
S31500001180B04640F20609C84446465B4633431F4311
S3150000119040F200131F435FE7802040020243CA6209
S315000011A0802212060A614A618A61524692694B623E
S315000011B08B62CA615246D2690A6252468F664F6690
S315000011C0D76A02AA904601225242029242465360D0
S315000011D00023019303ABEA68606800934346FFF778
S315000011E08DFE40F2030C4246664640F20108506806
S315000011F0A16802040006024316435046B44646461A
S31500001200029BC06A32431CE740F2090845E740F2F8
S315000012100908B9E7012EDBD83800012240F2030C99
S315000012204B460EE740F20308AEE740F2030834E708
S31500001230F0B5D6464F464646C0B5EFF30383103B9E
S315000012405BB21A0046F20006C032C4F200069200F3
S3150000125091591F4840F2003A0140915146F200016F
S315000012608146C4F20001980045185146695844F277
S315000012700461C2F2000140584168097801291CD175
S3150000128040F200088468C768A7604746A764E76419
S3150000129027654F469459274097515246AA58BFF39F
S315000012A05F8F1F245A092340994013004EF2001401
S315000012B06033CEF200049B00195143691BB1002232
S315000012C00021FFF7FBFDE0BCBA46B146A846F0BDDB
S315000012D0FFFFFEFF40F64003C0F240039C46F0B518
S315000012E0C6460A7C00B56244120282604160EFF392
S315000012F0108740F2010888F310880E7C46F6FC73CE
S31500001300B44603266446361B4446B440C4F204037E
S31500001310DD68A543DD60DB6887F310880023137260
S31500001320137A9B07DC0F002BFADBCB699472DF780C
S315000013301D781E79072382680C7A3B40002D65D103
S31500001340002C67D10025167395735372947244F27C
S31500001350AC444B684568C3602D7CC2F20004AD0006
S315000013602B51013B9BB213801223CB56002B3EDB45
S315000013704EF20012CEF20002944640F200389C086B
S31500001380A400644440F2FF0C424603256646A75873
S315000013904A7C1D40ED0092013240AE40AA404546CF
S315000013A0B7433A43625144F204629C00C2F200021F
S315000013B0A0501A0046F20004C032C4F200049200A3
S315000013C015591A4E354015511259BFF35F8F1F2418
S315000013D001221C40A2404EF20014CEF20004A446A4
S315000013E040F280145B099B0063441A511A604B69F2
S315000013F003618B6983610023436144F25473C0F235
S3150000140041030360002080BCB846F0BD502D08D0D3
S315000014102B4397E702356C4024012343DBB20024BB
S3150000142090E75024234300248CE7C046FFFFFEFFCD
S3150000143081680A7AD207D20F0B7A9B07DB0F9A4292
S31500001440FAD142681378012B0AD1C36844F2AC4042
S31500001450127CC2F2000092001350013B9BB20B803B
S31500001460F12300200B727047F0B5CE46474680B593
S3150000147085B0EFF30383103B5BB21A0046F200011E
S31500001480C032C4F2000192005058214C2040505006
S31500001490525844F204629B00C2F200029C58A668AD
S315000014A06268337A1278DBB2012A24D0984623691F
S315000014B09C4653B3606901AB9946D0B11900070049
S315000014C02CCF2CC143469B0601D500230371A3698B
S315000014D00360E047636913B14C4607CC07C3327A11
S315000014E0D2B20F231340337205B0C0BCB946B04622
S315000014F0F0BD1800E6E7F4223272E53A93439846C7
S31500001500337223699C46002BD4D14346DAB2E8E70E
S31500001510FFFFFEFF4EF20003A022C4F201039A5C15
S31500001520824217D036229A5C1AB93C215A5CD207FD
S31500001530FCD54EF20002A021C4F20102535CDB0688
S31500001540FCD450544EF20002A021C4F20102535CB6
S31500001550DB06FCD47047C0464EF20003262244F256
S315000015606C01C4F20103985C1B6A8000C2F20001A0
S3150000157041585B015B0F44F28C62D940C2F2000213
S3150000158011607047F8B54EF2000440F2FE332D4A62
S31500001590C4F20104E2524CF20003002743F6C8727B
S315000015A0C4F27E039F5444F26C0546F60043C2F231
S315000015B00005C0F2DC232B6041F20023C0F27A035F
S315000015C06B6048F20003AB602623EF602F61E25C9C
S315000015D0236A9200AA585B015B0F44F28C66DA40DC
S315000015E0C2F2000640F28043326001220020E2543B
S315000015F0FFF790FF36233C21E754635CDB07FCD5FD
S3150000160001213123E1544FF6C473C4F27E031970ED
S3150000161040F2001300202362DA3BE054E05C236AC8
S31500001620800028585B015B0FD84040F2FE333060E3
S31500001630054843F6C872E0524CF20003C4F27E033A
S315000016409954F8BD03A5FFFF00A5FFFF44F2000370
S3150000165028220021C4F20403995470470138002857
S31500001660FCD1704744F28C624CF600234143C2F22F
S31500001670000270B51468C3F69A330D00B3FBF4F498
S31500001680080040F2E8320023002100F06FF931B97A
S31500001690B0FBF4F0800808B1FFF7E0FF70BDA400CE
S315000016A0B5FBF4F040F2E8320023002100F05EF9C9
S315000016B00029F0D001204042FFF7D0FFEEE7C046F8
S315000016C046F2000340F2401270B500240126C4F22F
S315000016D000039D5AADB22B00E340E0B21E4209D092
S315000016E044F2C052C2F200029446A30063441B684F
S315000016F003B198470134102CEDD146F2000340F2B5
S315000017003012C4F200039D5270BDC04646F200007E
S315000017100023C4F2000042F25422C0F200029A18DA
S3150000172011781A00C032920001331150202BF2D1E9
S315000017307047C04670B5EFF31081012383F310881C
S3150000174044F284634000C2F200031A5A1AB11A5ACC
S31500001750013A92B21A521B5A83B94EF2000240F273
S31500001760FE3542F2A824C4F20102565B054BC0F2D4
S315000017700004205A334383439BB2535381F31088AA
S3150000178070BDC04600A5FFFF70B5EFF310810123C1
S3150000179083F3108844F284624000C2F20002135AB6
S315000017A083B94EF2000442F2A82540F2FE36C4F296
S315000017B00104C0F20005A35B2D5A2B434AF20055E3
S315000017C02B43A353135A01339BB2135281F3108850
S315000017D070BDC04600BE704710B500F003F8FFF7B5
S315000017E06FF9FEE7F0B54EF6005340F20005CEF273
S315000017F00003C0F2000583B09D600020FFF744F9A6
S31500001800FFF7C0FE6B460027DC1D277001202378FA
S31500001810FFF7BAFFEFF31081012686F3108846F62C
S31500001820FC73C4F204039A683C4802409A609A68C2
S3150000183081F3108840F60001C4F204010A68D20759
S31500001840D20F22700A68D207D20F22700A68D20716
S31500001850D20F2270EFF3108186F3108880229868E9
S31500001860520502439A609B6881F310880120FFF7B6
S3150000187061FF0120FFF708F940F60053284AC4F239
S3150000188000039F8027491A802A6841F200005118F8
S315000018909960DA6046F2000240F22011C4F20002BA
S315000018A0505244F2906244F28000C2F20002C2F248
S315000018B000009E800021121A00F08DFA44F200000A
S315000018C044F26C0242F22041C2F20000C2F200026F
S315000018D0121AC0F2000100F075FA44F2640544F2EF
S315000018E06803C2F20005C2F200035B1B9E10002BC8
S315000018F005DD002408CD01349847A642FADCFFF73F
S315000019002BFEFFF7A3FE0220FFF7BEF8FFF7FEFE51
S31500001910002000F009F803B0F0BDC046FFFFFFEF5E
S3150000192000A5FFFF00FCFFFF7047C046002B11D14A
S31500001930002A0FD1002900D1002802D00021C94376
S31500001940081C07B4024802A14018029003BDC04615
S315000019501D04000003B4684601B5029800F034F88F
S31500001960019B9E4602B00CBC7047C046F0B5CE4601
S3150000197047464FF6FF7580B50700280015400E0054
S315000019802900140C384099463B0C41435D436043A3
S31500001990634340190C0C24189C46A54203D98023A6
S315000019A05B029846C4444B464FF6FF707B43724336
S315000019B0250C654424040840591920188918C0BC10
S315000019C0B946B046F0BDC046F0B54E464546DE4681
S315000019D057469B46E0B583B00C9B050001935B46DA
S315000019E00C009246160081468846002B00D095E0F2
S315000019F08A424ED9100000F0BBF9050050B12023F1
S31500001A0049461B1AD9404B468440834021438640B1
S31500001A10884699464FF6FF70340CB8FBF4F2230063
S31500001A2030400100844640465343C31A484651435A
S31500001A301B04000C0343994209D99B19501E9E4270
S31500001A4000D96FE1994200D86CE1023A9B195B1A02
S31500001A50B3FBF4F14C4360461B1B4F464FF6FF7435
S31500001A6048431B043C401C43A04200D94EE1241AC3
S31500001A70100408430021019B23B1EC401A001C60AE
S31500001A800023536003B0F0BCBB46B246A946A0464D
S31500001A90F0BD02B9FFDE100000F06AF9050000286B
S31500001AA063D14FF6FF700121A21B3040340CB2FB0C
S31500001AB0F4F307005F43B84627005F43D21B1204C6
S31500001AC094464A466746120C3A43904508D95F1E2B
S31500001AD09219BC46964202D8904500D93DE163462C
S31500001AE04746D21BB2FBF4FC67467C437843121B85
S31500001AF04F464FF6FF7412043C401443A04208D9E7
S31500001B006246A419013AA64202D8A04200D927E1AA
S31500001B109446241A180463461843ACE78B4508D943
S31500001B20019B002B00D1FAE01860596000200021CB
S31500001B30A8E7584600F01CF90100002865D1A34526
S31500001B4002D3AA4500D905E15346EA1A9542AD41AA
S31500001B505B466D42E41A631B98460120019C002CEB
S31500001B6090D04346226063608CE720204A462300DB
S31500001B704946401BAE40AC40C240C340A940224348
S31500001B80340C8946B3FBF4F14FF6FF700F0030407A
S31500001B904743B84627004F43DB1B1B049C4667465A
S31500001BA0130C3B4398450AD94F1E9B19BC469E42CF
S31500001BB000D9CDE0984500D8CAE002399B194746BE
S31500001BC0DB1BB3FBF4FC67464743B84667464FF654
S31500001BD0FF7A6743DB1B57461B0417403B43984578
S31500001BE00DD962469B19013A9E4200D9ACE0984550
S31500001BF000D8A9E00222524292469B19D44442469A
S31500001C009A1A63460904194351E720231B1A9C4676
S31500001C105B46524683406046C240134352468A4062
S31500001C202E0092462200C6408C40C24026431C0C21
S31500001C30B2FBF4F027008D40B04647434FF6FF76DF
S31500001C40A9460500D21B47461E40754312043F0CA9
S31500001C503A43954208D9471ED218BB46934275D8D7
S31500001C60954273D90238D218521BB2FBF4F56C4375
S31500001C704746121B4FF6FF746E4312043C40144352
S31500001C80A64207D9E4186A1EA3425BD8A64259D9D0
S31500001C90023DE418A61B4FF6FF74220000042843F9
S31500001CA00240934652465F4614406743B8465F4635
S31500001CB0050C120C6C4355437A4347463F0CBB4612
S31500001CC012195A44944203D980246402A3465D44FF
S31500001CD0140C474665194FF6FF7412043C4012195E
S31500001CE0AE4225D322D0019B73B14B469A1A751B7F
S31500001CF09145B6417642AD1B2B006446CA40A340CF
S31500001D00CD401A43019B24C30021BBE6A4194B1EF8
S31500001D10A64209D8A04207D90239A419A7E600218C
S31500001D200020AFE6020092E61900A0E69145DAD25D
S31500001D305446141BA24292415242D3180138220043
S31500001D40ED1AD0E71500A5E7944658E758468BE705
S31500001D50614634E700202A0000E7023B9219BFE6FD
S31500001D60022252429046A419C444D2E67047C046A5
S31500001D701C2101231B04984201D3000C10391B0AB5
S31500001D80984201D3000A08391B09984201D3000979
S31500001D90043902A2105C40187047C04604030202D0
S31500001DA001010101000000000000000010B50A2238
S31500001DB0002100F0A9F810BD014B18687047C04615
S31500001DC000400020002310B59A4200D110BDCC5C23
S31500001DD0C4540133F8E703008218934200D17047D8
S31500001DE019700133F9E70023C25C0133002AFBD1E5
S31500001DF0581E7047F0B585B0039000910192012BF3
S31500001E0043D00F00242B40D83D4A0824944638007E
S31500001E1065460278791CAD5C0F002E0026402542EF
S31500001E20F5D12D2A38D101260A78811C002B63D0E2
S31500001E30102B09D1302A07D120200A788243582A4C
S31500001E4055D110234A7802312E4800243718B7FBA3
S31500001E50F3FC60465843381A029020001500303DC6
S31500001E60092D1ED82A0093422ADD002C25DB0124E9
S31500001E706442844506D302D1029D954202DB0124C9
S31500001E80584310180A780131E8E7FFF795FF162343
S31500001E900360002005B0F0BD2B2AC7D10A78811C4B
S31500001EA0C4E71500413D192D01D8373ADBE7150087
S31500001EB0613D192D04D8573AD5E701246442E1E77C
S31500001EC0002C09DA2223039A38001360019B002BA9
S31500001ED0E0D04B1E009306E006B14042019B002B6A
S31500001EE0D8D0002CF5D1019B009A1A60D2E7302297
S31500001EF0002BA9D10833A7E7302A9DD00A23A3E7F0
S31500001F00B1220000FFFFFF7F10B513000A00010099
S31500001F1002480068FFF76EFF10BDC0460040002073
S31500001F204275696C7420776974682052656E6573B2
S31500001F30617320416476616E63656420466C6578E2
S31500001F4069626C6520536F667477617265205061B3
S31500001F50636B6167652076657273696F6E20342ED8
S31500001F60342E3000342E342E3000000000000404DD
S31500001F70F8B5C046F8BC08BC9E467047F8B5C046E2
S31500001F80F8BC08BC9E4670475465726D696E616CFC
S31500001F9000FFFFFF0000000000005454522052458D
S31500001FA04747455300FFFFFF414754300D0A00FFE6
S31500001FB0475054300D0A00FF0D0A20456E746572B5
S31500001FC02074686520646573697265642070657243
S31500001FD0696F6E20696E206D696C697365636F6EDB
S31500001FE064200D0A00FFFFFF534547474552205224
S31500001FF05454205465726D696E616C0D0A00FFFFC2
S315000020005C450020D420000074220000000000007F
S3150000201000800000000000000040000000030300F4
S3150000202029090000000000002C20000040000001EB
S31500002030000000FF0000000000E1F50500000000C0
S3150000204080F0FA02000200004109000000000000D2
S315000020505420000000000000000000000000000006
S31500002060000000000000000000000000000000006A
S31500002070000000000000FFFFDFDF0000000000009E
S31500002080000000000200000040420F0000000000B7
S3150000209020A1070000FF0000000000000000000073
S315000020A0A420000001000000000000000000000065
S315000020B0000000000000000000000000000000001A
S315000020C0000000000000FFFFDFDF0000000000004E
S315000020D0000000002F000000DC200000008000004F
S315000020E000000000008000000100000000800000E9
S315000020F00200000000800000030000000040000015
S3150000210004000000008000000C00000000800000B9
S315000021100D000000004000000F0000000000010656
S315000021200001000000000106010100000000010698
S315000021300201000000000106030100000400000087
S315000021400401000000000106050100000000010670
S315000021500601000004000000070100000000010065
S315000021600801000004000000090100001040000002
S315000021700A010000000001030B010000040000003A
S315000021800C010000040000000D0100000000010425
S315000021900502000000000104060200000400000021
S315000021A0070200000400000008020000000001030E
S315000021B00D020000000001000003000040000104C1
S315000021C001030000400001040203000004000000B7
S315000021D003030000040000000403000000000105E2
S315000021E000040000000001050104000000000105D4
S315000021F002040000000001050304000000000107BE
S315000022000704000000000107080400001040000059
S3150000221009040000040000000A0400001040000049
S315000022200B0400000400000000050000400001054A
S315000022300105000040000105020500000400000041
S315000022400D090000040000000E0900000400000053
S315000022500F0900000F000011000000000000000040
S315000022600000000000000000000000000000000068
S3150000227000000000C50D0000CD0A0000E10D0000C1
S31500002280D50A0000350C0000810C0000750B00001B
S31500002290D10B0000F90B00001D0C0000610C0000C2
S315000022A0990B0000B10B00000100020008001000AD
S315000022B00020202020202020202028282828282010
S315000022C02020202020202020202020202020202008
S315000022D02088101010101010101010101010101070
S315000022E01004040404040404040404101010101060
S315000022F0101041414141414101010101010101012A
S31500002300010101010101010101010101101010107B
S3150000231010104242424242420202020202020202FB
S31500002320020202020202020202020202101010104F
S315000023302000000000000000000000000000000077
S315000023400000000000000000000000000000000087
S315000023500000000000000000000000000000000077
S315000023600000000000000000000000000000000067
S315000023700000000000000000000000000000000057
S315000023800000000000000000000000000000000047
S315000023900000000000000000000000000000000037
S315000023A00000000000000000000000000000000027
S315000023B000FFFFFF0000000000000000000000001A
S315000023C00000000000000000000000000000000007
S315000023D000000000000000000000000000000000F7
S315000023E000000000000000000000000000000000E7
S315000023F000000000000000000000000000000000D7
S3150000240000000000000000000000000000000000C6
S30D000024100000000000000000BE
S30D00002418B0F5FF7F0100000092
S315000024200440002000000000D4230000F423000034
S31500002430B4230000000000000000000000000000BF
S315000024400000000000000000000000000000000086
S315000024500000000000000000000000000000000076
S315000024600000000000000000000000000000000066
S315000024700000000000000000000000000000000056
S31100002480000000002D0500000105000012
S31501010018FFFFFFFFFFFFFFFFFFFFFFFFFFFFFFFFE0
S31101010028FFFFFFFFFFFFFFFFFFFFFFFFD0
S705000017D90A
