S00D0000365F5254542E7372656388
S31500000000F0590020D5140000BD130000D1140000E3
S31500000010D1140000D1140000D1140000D114000046
S31500000020000000000000000000000000D1140000E5
S31500000030D114000000000000D1140000D11400000B
S31500000040110D00007D0C0000B10D0000FD0D00003B
S3150000005000000000000000000000000099110000F0
S3150000006000000000000000000000000099110000E0
S31500000070000000000000000000000000000000007A
S31500000080000000000000000000000000000000006A
S31500000090000000000000000000000000000000005A
S315000000A0000000000000000000000000000000004A
S31500000400FFFFFFFFDFCEFFFFFCFF0F00FFFF0F0028
S31500000410FCFF0F00FFFF0F00FCFF0F00FFFF0F00A8
S31500000420FCFF0F20FFFF0F20FCFF7F40FFFF7F40F8
S31500000430FCFF0D40FFFF0D40FFFFFFFFFFFFFFFF2B
S31500000440FFFFFFFFFFFFFFFFFFFFFFFFFFFFFFFFB6
S31500000450FFFFFFFFFFFFFFFFFFFFFFFFFFFFFFFFA6
S31500000460FFFFFFFFFFFFFFFFFFFFFFFFFFFFFFFF96
S31500000470FFFFFFFFFFFFFFFFFFFFFFFFFFFFFFFF86
S31500000480FFFFFFFFFFFFFFFFFFFFFFFFFFFFFFFF76
S31500000490FFFFFFFFFFFFFFFFFFFFFFFFFFFFFFFF66
S315000004A0FFFFFFFFFFFFFFFFFFFFFFFFFFFFFFFF56
S315000004B0FFFFFFFFFFFFFFFFFFFFFFFFFFFFFFFF46
S315000004C0FFFFFFFFFFFFFFFFFFFFFFFFFFFFFFFF36
S315000004D0FFFFFFFFFFFFFFFFFFFFFFFFFFFFFFFF26
S315000004E0FFFFFFFFFFFFFFFFFFFFFFFFFFFFFFFF16
S315000004F0FFFFFFFFFFFFFFFFFFFFFFFFFFFFFFFF06
S3150000050010B544F22004C2F20004237863B940F225
S315000005100003C0F200032BB141F6B810C0F2000090
S3150000052000E000BF0123237010BDC04640F2000367
S31500000530C0F2000310B54BB144F2240141F6B810E5
S31500000540C2F20001C0F2000000E000BF10BDC046CC
S31500000550F8B58368C568CE4699465B1B47469846FC
S315000005604368040080B50E0017005819904509D954
S3150000057001F088F8BFF35F8FED19E560C0BCB9469E
S31500000580B046F8BD424601F07DF84B463100ED1904
S31500000590ED1A2A006068414401F074F8BFF35F8FDA
S315000005A0E560EBE7F8B54746CE46884680B51600C7
S315000005B0070040F20009C56884681CE0013B5B1B2C
S315000005C0641BB44200D934009C4200D91C007B68ED
S315000005D022004146581901F055F82D19A144A044AE
S315000005E0361BBC68631B5A1E93415B421D40BFF31A
S315000005F05F8FFD6036B13B699D42DFD3013B1B191E
S315000006005B1BDDE74846C0BCB946B046F8BDC046F0
S3150000061010B544F24C44C2F20004A8220021200086
S3150000062001F039F8032341F210722361636144F249
S315000006304C03C0F20002C2F20003A261E36140F281
S31500000640004323620023A3626362E362226644F2EC
S315000006503C02C2F2000262661022A2662367E366CB
S315000006606367BFF35F8F41F21C725321C0F2000231
S3150000067001E00F215156E1540133013A102BF8D114
S31500000680BFF35F8F10BDC046431C70B50400580011
S31500000690C01844F24C43C2F200039C4663001B1987
S315000006A0DB006344DC6AC00015006044012C05D001
S315000006B0022C1ED084B10024200070BD9A6A5C6AA8
S315000006C0A2421FD9013A121B2C00954200D91400F0
S315000006D02200FFF73DFFEFE79A6A5E6AB2420CD945
S315000006E0013A921B9542E7D82A00FFF731FF2C000A
S315000006F0E2E7FFF757FF0400DEE71B6AD218013A6C
S31500000700921BEFE71B6AD218013A121BDCE7C046C0
S31500000710F8B544F24C43C2F200031B7804000D0006
S315000007201600532B01D0FFF773FFEFF3108701215B
S3150000073081F31088320029002000FFF7A5FF87F318
S315000007401088F8BD10B5040083686268581C904292
S3150000075007D82268D154E36862680133E360030076
S31500000760A0609A4200D010BD21682069FFF7D0FF33
S31500000770A368984203D001235B42E360F3E70023BA
S31500000780A360F0E7F8B557464E464546DE46E0B567
S315000007901E000A9B0F00814615009A460B99974248
S315000007A000D26FE03B000122B3FBF5F301329D421C
S315000007B0FAD99046B24200D2B04601231A000A4046
S315000007C093460B4240D15346002B3DD020248B0745
S315000007D051D4D04538D201235B429C46210048467D
S315000007E0E244FFF7AFFF4B46DB68002B26DB5346A0
S315000007F0002BEED10124012E03D9013E6C43012EBC
S31500000800FBD8B7FBF4F39D42F8D941F2B476C0F2B7
S31500000810000606E0B4FBF5F3AC420DD31C00B7FBB3
S31500000820F3F322005A43F1564846BF1AFFF78AFFF0
S315000008304B46DB68002BEDDA5B46C3B9F0BCBB4622
S31500000840B246A946A046F8BD4B46DB68002BD1DA76
S31500000850F4E7D045F2D201235B429C46202148466C
S31500000860E244FFF76FFF4B46DB68002BE6DB53469F
S31500000870002BEED1E2E774427441634210241C401F
S315000008802034A6E7012294E7F0B55746DE464E46E9
S315000008904546E0B59DB00CAB079340230893002373
S315000008A083460C00914640F2010AB94F09930B901A
S315000008B00A9305E007A8FFF745FF0A98002861DBC1
S315000008C0002161560134002963D02529F2D1220086
S315000008D00023D356002602250820140021392D2B8B
S315000008E00DD02D2B0FDC232B12D02B2B00D059E152
S315000008F00E4301320023D35614002D2BF1D153465B
S3150000090001321E43F6E7302B05D12E430132F1E7C3
S3150000091006430132EEE71A00303AD2B20025092A20
S315000009200FD81900AB005B195B005B18002101347E
S315000009306156303B0A00303AD2B21D00092AF1D97D
S315000009400B002E2B00D1D4E0002340F20008E35622
S31500000950042102E000230134E3561A008A43682A80
S31500000960F8D0252B06D0583BDBB2202B06D89B00AF
S31500000970FB589F46252107A8FFF7E4FE0A98013495
S3150000098000289DDA1DB0F0BCBB46B246A946A0467B
S31500000990F0BD0A980028F5DD099A002A00D0C7E0C4
S315000009A08018EFE74B4649461B6807A81A1D0A60E0
S315000009B019680A22434601960095FFF7E3FE0134C3
S315000009C00A98DDE74B4649461B681A1D0A601D68F2
S315000009D005E007A8FFF7B6FE0A980028CFDB00213E
S315000009E0695601350029F4D10A98C8E74B464946AD
S315000009F01B6807A81A1D0A601968002301930833AB
S31500000A0010220093FFF7BEFE01340A98B8E74B4662
S31500000A1049461B681A1D1B680A60DA1703939B1860
S31500000A2053400122092B06DD0A201900013293FBEF
S31500000A30F0F36329F9DC43460493904500D27FE046
S31500000A40002D51D0039B002B00DA7DE073077BD489
S31500000A50B30702D54346002B46D05346334243D113
S31500000A60002D41D00596049EAE423CD207A8202117
S31500000A70FFF768FE0A98013D002800DA7FE7002D9F
S31500000A80F2D1059E039B002B60DB730769D4032319
S31500000A903340022B6AD007A843460A2203990196DF
S31500000AA00095FFF76FFE01340A9869E74B46494601
S31500000AB01B6807A81A1D0A6000215956FFF742FE57
S31500000AC001340A985CE74B4649461B6807A81A1D7D
S31500000AD00A6019681022434601960095FFF752FEF8
S31500000AE001340A984CE7059E0A980028CADA0134B0
S31500000AF046E70123E356611C1A00303AD2B20C00D5
S31500000B0040F20008092A00D922E71900404683006E
S31500000B101B185B005B18002101346156303B0A004C
S31500000B20303AD2B21800092AF1D90B0080460FE7F5
S31500000B3058460CA9FFF7ECFD0A98099A801821E798
S31500000B400492002DD0D07DE7013D81E75B422D2147
S31500000B5007A80393FFF7F6FD0A98002897DA0134F1
S31500000B600EE72B2107A8FFF7EDFDF5E74346002B1F
S31500000B7091D1ADB1049BAB420CD207A83021FFF74F
S31500000B80E1FD0A98013D0028F3DA0134F8E6C04693
S31500000B90301700000A98002800DB7CE70134EFE6F6
S31500000BA0002578E70025CFE60EB400B582B003AB8A
S31500000BB002CB01AA0193FFF767FE02B008BC03B09F
S31500000BC01847C04610B5002441F2C4710134220012
S31500000BD0C0F200010020FFF7E7FF40F2E831642091
S31500000BE000F0BEFBF0E7C04600B583B040B94CF25A
S31500000BF0000390220121C4F27E03995403B000BD84
S31500000C000228FBD141F2D87344F2F440C0F200034B
S31500000C105B68C2F200001900019300F0A7FAEDE745
S31500000C2010B5FFF7CFFF002010BDC046F0B5C64691
S31500000C3000B50500806A84B08C4690466C46D8B1F3
S31500000C402300060086CE86C336681E60EB691B78D5
S31500000C5003606346836043460371EB6AC3606B6A55
S31500000C609847AB6A23B107CC07C31A002368136001
S31500000C7004B080BCB846F0BD2000E7E770B5EFF3DE
S31500000C800383103B5BB21A0046F20001C032C4F285
S31500000C900001920050581D4C20405050525844F2CA
S31500000CA060529B00C2F200029858C3691B6913B1D7
S31500000CB0036913B170BD036983B97F23026A917812
S31500000CC00B4004210B4393700023C360436A002B3F
S31500000CD0F0D080220021FFF7A9FFEBE703218278FD
S31500000CE0114002290AD0C168056A0C78EC70920797
S31500000CF0920F9B1A8A180361C260DAE74FF6006505
S31500000D00C1680C882C43056AEC81F0E7FFFFFEFF03
S31500000D1010B582B0EFF30383103B5BB21A0046F2C4
S31500000D200001C032C4F20001920050581F4C20400E
S31500000D305050525844F260529B00C2F200029C5836
S31500000D400323A2781340022B0DD0236A5979A36995
S31500000D50C9B2019183B9636A1BB104222000FFF76F
S31500000D6065FF02B010BD40F2FF11236A1B8A1940CD
S31500000D70A3690191002BEED09207920F606901A939
S31500000D8000F080FCA37862699B079B0FD218626112
S31500000D90A269D31AA361002BE3D1636A002BE0D0CA
S31500000DA0012200212000FFF741FFDAE7FFFFFEFFE7
S31500000DB010B5EFF3038444F26053103C64B2C2F200
S31500000DC00003A200D0587B23026A91780B409370EF
S31500000DD0436A1BB102220021FFF728FF230046F2D7
S31500000DE00002C033C4F200029B0099580248014039
S31500000DF099509B5810BDC046FFFFFEFF70B5EFF33C
S31500000E00038444F26053103C64B2C2F20003A200B1
S31500000E10D058032382781340022B22D0036A5979D3
S31500000E20C9B238221D792A40ED0602D51D7FED078D
S31500000E3014D538261D79B5431D71436A0BB1FFF7EA
S31500000E40F5FE230046F20002C033C4F200029B0006
S31500000E5099580748014099509B5870BD40252A4330
S31500000E60E7E740F2FF11036A1A8A1140D9E7C04644
S31500000E70FFFFFEFF00230360002070470800F0B567
S31500000E80EFF31084012383F3108844F25C53C2F21B
S31500000E900003196831B940F60055C4F20405E9703B
S31500000EA04031E97019680131196084F31088040A29
S31500000EB0D10320D4FF210140200140F60004401850
S31500000EC0C4F2040480000251EFF31082012181F381
S31500000ED01088196811B11968013919601B6833B98E
S31500000EE040F60051C4F20401CB708033CB7082F31C
S31500000EF010880020F0BDFF2140F6000501402001CA
S31500000F004418C4F20405A4006759034E374016403E
S31500000F1067516651D1E7C046FFFFFEFF0B00FF2079
S31500000F20034040F60000090A0901C918C4F204008A
S31500000F3089000B589B07DB0F002013707047C046D3
S31500000F400023C4F204039C46090A490161444B6824
S31500000F50002013807047C0460020C4F20400844677
S31500000F601800090A904300041340490103436144F1
S31500000F7000208B607047C046FF2001230840834055
S31500000F8052B91B040022C4F204029446090A49011C
S31500000F90614400208B6070474FF6FF721340F1E703
S31500000FA00020C4F2040084461800090A490110B55D
S31500000FB061440C6810402043934398430860002026
S31500000FC010BDC0460023C4F204039C46090A490129
S31500000FD061444B6800201B0C138070470020C4F24C
S31500000FE00400844610B50B0A5B0163445C68FF236A
S31500000FF01940FE3B8B40240C99B223405B1A5942A0
S315000010004B410020137010BD0020C4F2040084463A
S315000010101800090A90430004134049010343614440
S315000010200020CB607047C0460B0A10B55B01012A51
S3150000103010D00022C4F204029446FF208022014010
S3150000104052028A406344DC682243120C12040020D8
S31500001050DA6010BD0020C4F204008446FF2001407F
S315000010608A4011004FF6FF726344DC681140214349
S315000010700A40ECE7F0B5DE4657464E464546E0B533
S3150000108083B0EFF31082012383F3108844F25C539C
S31500001090C2F2000301931B6833B940F60054C4F250
S315000010A00404E3704033E370019C2368013323603A
S315000010B082F310880388C3B30B6840F60004984691
S315000010C080235B029C46284B00229A46C4F2040405
S315000010D00DE0330A9946FF231E404B461B019B1920
S315000010E09B0019510132038892B293421DD963467F
S315000010F0D10041448E8809681942EAD0330A9946DC
S31500001100FF231E404B4657461B019D19AD00A946BD
S315000011102D593D40AB464D465F462F5155460D4035
S31500001120AB464D465F462F51D9E7EFF310820123B8
S3150000113083F31088019B1B681BB101990B68013B67
S315000011400B60019B1B6833B940F60051C4F20401E1
S31500001150CB708033CB7082F3108803B0F0BCBB46F3
S31500001160B246A946A046F0BDFFFFFEFF45F2542356
S31500001170020010B5C5F24F03080013600431FFF7F3
S3150000118079FF002010BDC04610B508000431FFF7F6
S3150000119071FF002010BDC04630B583B0EFF3038465
S315000011A044F26053103C64B2C2F20003A200D1586C
S315000011B046F200024879C4F20002135C9B079B0FBB
S315000011C0032B0FD0C034A400A358104D2B40A350BE
S315000011D0A3588B6823B1CA68019000926846984765
S315000011E003B030BD8B6823B1CA680190009268468F
S315000011F0984746F20003C034A400C4F20003E25844
S3150000120002490A40E250E358EAE7C046FFFFFEFF04
S315000012104EF20003A022C4F201039A5C824217D068
S3150000122036229A5C1AB93C215A5CD207FCD54EF29A
S315000012300002A021C4F20102535CDB06FCD4505428
S315000012404EF20002A021C4F20102535CDB06FCD47C
S315000012507047C0464EF20003262244F20801C4F24B
S315000012600103985C1B6A8000C2F2000141585B01D1
S315000012705B0F44F2E852D940C2F200021160704797
S31500001280F8B54EF2000440F2FE332D4AC4F20104D2
S31500001290E2524CF20003002743F6C872C4F27E0302
S315000012A09F5444F2080546F60043C2F20005C0F218
S315000012B0DC232B6041F20023C0F27A036B6048F214
S315000012C00003AB602623EF602F61E25C236A920085
S315000012D0AA585B015B0F44F2E856DA40C2F20006F8
S315000012E040F28043326001220020E254FFF790FF73
S315000012F036233C21E754635CDB07FCD5012131230F
S31500001300E1544FF6C473C4F27E03197040F2001321
S3150000131000202362DA3BE054E05C236A8000285810
S315000013205B015B0FD84040F2FE333060054843F660
S31500001330C872E0524CF20003C4F27E039954F8BD21
S3150000134003A5FFFF00A5FFFF44F2000328220021AA
S31500001350C4F204039954704701380028FCD1704741
S3150000136044F2E8524CF600234143C2F2000270B543
S315000013701468C3F69A330D00B3FBF4F4080040F288
S31500001380E8320023002100F04FF931B9B0FBF4F048
S31500001390800808B1FFF7E0FF70BDA400B5FBF4F0CC
S315000013A040F2E8320023002100F03EF90029F0D097
S315000013B001204042FFF7D0FFEEE7C04646F20003A9
S315000013C040F2401270B500240126C4F200039D5A73
S315000013D0ADB22B00E340E0B21E4209D044F21C52EB
S315000013E0C2F200029446A30063441B6803B1984707
S315000013F00134102CEDD146F2000340F23012C4F253
S3150000140000039D5270BDC04646F200000023C4F2A0
S31500001410000041F65C12C0F200029A1811781A0018
S31500001420C032920001331150202BF2D17047C046D2
S3150000143070B5EFF31081012383F3108844F2E05373
S315000014404000C2F200031A5A1AB11A5A013A92B26D
S315000014501A521B5A83B94EF2000240F2FE3541F68B
S31500001460B014C4F20102565B054BC0F20004205AC8
S31500001470334383439BB2535381F3108870BDC046F8
S3150000148000A5FFFF70B5EFF31081012383F31088E9
S3150000149044F2E0524000C2F20002135A83B94EF2FF
S315000014A0000441F6B01540F2FE36C4F20104C0F263
S315000014B00005A35B2D5A2B434AF200552B43A35339
S315000014C0135A01339BB2135281F3108870BDC04684
S315000014D000BE704710B500F003F8FFF7A1FBFEE76A
S315000014E0F0B54EF6005340F20005CEF20003C0F20E
S315000014F0000583B09D600020FFF776FBFFF7C0FE76
S315000015006B460027DC1D277001202378FFF7BAFF02
S31500001510EFF31081012686F3108846F6FC73C4F2B9
S3150000152004039A683C4802409A609A6881F31088DE
S3150000153040F60001C4F204010A68D207D20F2270F5
S315000015400A68D207D20F22700A68D207D20F227019
S31500001550EFF3108186F310888022986852050243C3
S315000015609A609B6881F310880120FFF761FF0120D4
S31500001570FFF73AFB40F60053284AC4F200039F8067
S3150000158027491A802A6841F2000051189960DA60EA
S3150000159046F2000240F22011C4F20002505244F218
S315000015A0EC5244F22000C2F20002C2F200009E8019
S315000015B00021121A00F06FF844F2000044F208020B
S315000015C041F6BC11C2F20000C2F20002121AC0F2C9
S315000015D0000100F057F844F2000544F20403C2F299
S315000015E00005C2F200035B1B9E10002B05DD0024E4
S315000015F008CD01349847A642FADCFFF72BFEFFF729
S31500001600A3FE0220FFF7F0FAFFF7FEFE002000F02F
S3150000161009F803B0F0BDC046FFFFFFEF00A5FFFFCE
S3150000162000FCFFFF7047C046F0B5CE4647464FF672
S31500001630FF7580B50700280015400E002900140C20
S31500001640384099463B0C41435D4360436343401930
S315000016500C0C24189C46A54203D980235B029846AD
S31500001660C4444B464FF6FF707B437243250C6544DA
S3150000167024040840591920188918C0BCB946B04638
S31500001680F0BDC046002310B59A4200D110BDCC5C17
S31500001690C4540133F8E703008218934200D170471F
S315000016A019700133F9E7FFFF4275696C7420776999
S315000016B074682052656E6573617320416476616E4D
S315000016C063656420466C657869626C6520536F6655
S315000016D07477617265205061636B6167652076651A
S315000016E07273696F6E20342E342E3000342E342EF1
S315000016F03000000000000404F8B5C046F8BC08BC81
S315000017009E467047F8B5C046F8BC08BC9E46704772
S315000017105465726D696E616C00FFFFFF000000008A
S3150000172000005454522052454747455300FFFFFFDF
S31500001730C60A00007C0900007C0900007C09000044
S315000017407C0900007C0900007C0900007C0900007F
S315000017507C0900007C0900007C090000AC0A00003E
S315000017600E0A00007C0900007C0900007C090000CC
S315000017707C0900007C0900007C0900007C0900004F
S315000017807C0900007C0900007C0900007C0900003F
S31500001790EC0900007C0900007C090000C409000077
S315000017A07C090000A40900007C0900007C090000F7
S315000017B0C60A0000303132333435363738394142C3
S315000017C043444546525454205072696E74663A201A
S315000017D025640A0D00FFFFFFF4440020E417000013
S315000017E07C1900002E000000EC17000000800000AD
S315000017F000000000008000000100000000800000E2
S31500001800020000000080000003000000004000000D
S3150000181004000000008000000C00000000800000B2
S315000018200D000000004000000F000000000001064F
S315000018300001000000000106010100000000010691
S315000018400201000000000106030100000400000080
S315000018500401000000000106050100000000010669
S31500001860060100000400000007010000000001005E
S3150000187008010000040000000901000010400000FB
S315000018800A010000000001030B0100000400000033
S315000018900C010000040000000D010000000001041E
S315000018A0050200000000010406020000040000001A
S315000018B0070200000400000008020000000001000A
S315000018C00003000040000104010300004000010481
S315000018D002030000040000000303000004000000EF
S315000018E004030000000001050004000000000105DB
S315000018F001040000000001050204000000000105CB
S3150000190003040000000001070704000000000107AF
S315000019100804000010400000090400000400000054
S315000019200A040000104000000B0400000400000040
S31500001930000500004000010501050000400001050A
S3150000194002050000040000000D090000040000006C
S315000019500E090000040000000F09000012100F0F0E
S31500001960000000110000000100000000000000005F
S315000019700000000000000000000000006D110000E3
S31500001980750E0000891100007D0E0000DD0F0000BD
S31500001990291000001D0F0000790F0000A10F0000A4
S315000019A0C50F000009100000410F0000590F00008C
S311000019B00100020008001000000000000A
S30D000019BC2D05000001050000E5
S31501010018FFFFFFFFFFFFFFFFFFFFFFFFFFFFFFFFE0
S31101010028FFFFFFFFFFFFFFFFFFFFFFFFD0
S705000014D511
